:100000000C942E010C9456010C9456010C9456013C
:100010000C9456010C9456010C9456010C94560104
:100020000C9456010C9456010C94F11D0C94831CF5
:100030000C9456010C9456010C9456010C945601E4
:100040000C9456010C9437160C9456010C945601DE
:100050000C9456010C9456010C9456010C9478168D
:100060000C9456010C9456010C9456010C945601B4
:100070000C9456010C9456010C9456010C945601A4
:100080000C9456010C9456010C9456010C94560194
:100090000C9456010C9456010C9456010C94560184
:1000A0000C9456010C9456010C945601D517D81790
:1000B000C717CB17D117F917F917F917DC17E0177E
:1000C000E417EA17EE17F917F41707634236B79BE0
:1000D000D8A71A39685618AEBAAB558C1D3CB7CCA8
:1000E0005763BD6DEDFD753EF6177231BF00000020
:1000F000803F08000000BE922449123EABAAAA2A03
:10010000BECDCCCC4C3E00000080BEABAAAAAA3E1D
:1001100000000000BF000000803F00000000000859
:100120004178D3BB4387D1133D190E3CC3BD4282F6
:10013000AD2B3E68EC8276BED98FE1A93E4C80EFB4
:10014000FFBE01C4FF7F3F0000000000070605045A
:100150000100080A0B0C0D090000000200090F0045
:1001600000030401000C000000000000000000007B
:100170000000000000000004080201104080401050
:1001800020408040800802040180402010020110BD
:1001900080102040402004040404040304050202EB
:1001A0000202040302020202060606060606040410
:1001B000020202040400000000250028002B002E8B
:1001C00000310000000000240027002A002D00302C
:1001D00000080B00020202010009040000010202F3
:1001E0000000052400100105240101010424020679
:1001F00005240600010705810310004009040100E1
:10020000020A000000070502024000000705830201
:1002100040000012010002EF02014041233680003D
:1002200001010203011201000200000040412336D7
:100230008000010102030141726475696E6F204CF8
:100240004C430041726475696E6F204C656F6E613E
:1002500072646F0004030904E512601911241FBEC3
:10026000CFEFDAE0DEBFCDBF13E0A0E0B1E0E2E423
:10027000F0E502C005900D92A83FB107D9F724E040
:10028000A8EFB3E001C01D92A23BB207E1F712E074
:10029000CCE5D2E004C02297FE010E942725C83594
:1002A000D107C9F70E9496200C941F280C940000D7
:1002B000809160010C941F16EF92FF920F931F9391
:1002C000CF93DF931F92CDB7DEB77C01FC01008195
:1002D0001181C80169830E94C2276981681719F0DA
:1002E000C8010E94CA27C7010F90DF91CF911F91CB
:1002F0000F91FF90EF900895EF92FF920F931F934D
:10030000CF93DF93CDB7DEB767970FB6F894DEBF14
:100310000FBECDBF61E080E090E00E94CA278091CF
:100320003D0190913E019A83898380913B01909198
:100330003C019C838B83809134018D8380911404D4
:100340008E83809113048F8380911204888780911B
:100350001104898780913501909136019B878A87A6
:10036000809133018C878091390190913A019E8769
:100370008D878091370190913801988B8F8780917C
:100380003001898B80910B048A8B80912C018B8B9F
:1003900080910D048C8B80910C048D8BCE01019685
:1003A0007C0101E010E0F70161917F011F8B0E8B52
:1003B000CE0146960E945C010F5F1F4F063111056A
:1003C00091F767960FB6F894DEBF0FBECDBFDF91F1
:1003D000CF911F910F91FF90EF9008952F923F9230
:1003E0004F925F926F927F928F929F92AF92BF9245
:1003F000CF92DF92EF92FF920F931F93CF93DF93F1
:10040000CDB7DEB72B970FB6F894DEBF0FBECDBFCA
:10041000362E272E89839A832B833C834D835E83DC
:100420002701380198A089A00AA11BA12CA13DA1F8
:100430004EA15FA160E070E0CB010E9445212DEC50
:100440003CEC4CEC5DEB0E94F8229B01AC0160E0BF
:1004500070E080E291E40E945B23688779878A8755
:100460009B87232D322D49815A81692D782DC80112
:100470000E94AA2187FF03C0410109811A812B81B3
:100480003C814D815E81692D782DC8010E94F42246
:10049000181624F49B808C800D811E81A30192018B
:1004A000C601B5010E94F422181654F4A30192016A
:1004B000C601B5010E9445216B017C011F820AC063
:1004C000A6019501C301B2010E9445216B017C0187
:1004D00021E02F832B813C814D815E81632D722D24
:1004E00089819A810E94F4221816F4F1232D322D6D
:1004F00049815A81692D782DC8010E9445214B01FF
:100500005C01232D322D49815A816B817C818D8143
:100510009E810E9445219B01AC01C501B4010E944E
:10052000AE212F8121110FC0288539854A855B8531
:100530000E945B23A70196010E94F822A301920169
:100540000E94462114C0288539854A855B850E9412
:100550005B23A70196010E94F8229B01AC01C30115
:10056000B2010E94452103C060E070E0CB012B96F0
:100570000FB6F894DEBF0FBECDBFDF91CF911F91B4
:100580000F91FF90EF90DF90CF90BF90AF909F9032
:100590008F907F906F905F904F903F902F90089535
:1005A0008F929F92AF92BF92CF92DF92EF92FF9283
:1005B00080912C01882339F0812C912C5401C12C7D
:1005C000D12C76010CC080915F01FF90EF90DF90FD
:1005D000CF90BF90AF909F908F900C948C172091EC
:1005E0002C0130E040E050E082169306A406B506E8
:1005F00094F480915F010E948C17AA2797FDA09523
:10060000BA2FC80ED91EEA1EFB1E8FEF881A980A51
:10061000A80AB80AE4CFC701B6010E94E424C901C0
:10062000FF90EF90DF90CF90BF90AF909F908F9012
:1006300008950F931F93009721F41F910F910C942D
:1006400058018B0120E030E0AC0160E070E0809167
:1006500060010E9469151F910F9108950F931F93D8
:10066000CF93DF93082FEB0110E0101769F068ECCF
:1006700070E0CE010E94190360E971E080E090E033
:100680000E94F1161F5FF1CFDF91CF911F910F9163
:100690000895AF92BF92CF92DF92EF92FF920F93A5
:1006A0001F93CF93DF93CFE3D1E03FE4C32E31E03C
:1006B000D32E48EEE42E43E0F42E03E010E06991DF
:1006C0007991C7010E94D0245B01F601819191913B
:1006D0006F010E941903C501880F991F880F991F88
:1006E000B8010E94D024882777FD8095982F0E941A
:1006F000F116F1E0CF34DF0711F7DF91CF911F91B1
:100700000F91FF90EF90DF90CF90BF90AF90089542
:100710009F92AF92BF92CF92DF92EF92FF920F9390
:100720001F93CF93DF9300D000D000D0CDB7DEB7BA
:100730008C017B01C42E6AEE73E00E94461FD12C0F
:10074000DC1439F06DE971E0C8010E944620D394B1
:10075000F7CF4AE0B701CE0101960E94C11F8D81FB
:100760009E81982EE12CF12C5C01BB24E914C0F48D
:10077000F801648175816A197B096E0D7F1DC801BE
:100780000E9483206C01B701CE0101960E94832054
:10079000FC018081F6018083FFEFEF1AFF0AE6CFAC
:1007A000CE0101960E94D81EC80126960FB6F89475
:1007B000DEBF0FBECDBFDF91CF911F910F91FF9094
:1007C000EF90DF90CF90BF90AF909F9008952091D1
:1007D00001043091020480913D0190913E01821705
:1007E000930740F481E040913B0150913C01241774
:1007F000350708F080E008951F93CF93DF93EC0155
:10080000162F462F60E08DE194E00E949D136AEA66
:1008100073E08DE194E00E94C919412F60E08DE101
:1008200094E00E949D13BE018DE194E0DF91CF9191
:100830001F910C94BB19EF92FF920F931F93CF93CC
:10084000DF93CDB7DEB76B970FB6F894DEBF0FBE60
:10085000CDBFCE0101967C0101E010E0C8010E94ED
:10086000C227F70181937F010F5F1F4F06311105EA
:10087000A9F789819A8190933E0180933D018B81F4
:100880009C8190933C0180933B018D818093340146
:100890008C85809333018E81809314048F818093A3
:1008A00013048885809312048985809311048A85B6
:1008B0009B8590933601809335018D859E8590931D
:1008C0003A01809339018F859889909338018093FC
:1008D00037018989809330018A8980930B048B8941
:1008E00080932C018C8980930D048D8980930C0456
:1008F0006FE971E0CE0146960E94461F41E060E03C
:10090000CE0146960E94FC03CE0146960E94D81E58
:100910006B960FB6F894DEBF0FBECDBFDF91CF91BF
:100920001F910F91FF90EF900895AF92BF92CF92D9
:10093000DF92EF92FF920F931F93CF93DF9300D03C
:1009400000D000D0CDB7DEB7182F8DE194E00E9423
:100950009613612F70E040EA50E085E194E00E9438
:10096000E714612F70E080E090E01F921F921F92C9
:100970002AE02F93A12CB12C650110EAE12EF12C75
:1009800000E010E020E030E0A9010E94911EAB01E0
:10099000BC012AE0CE0101960E94ED1F41E062E019
:1009A000CE0101960E94FC03CE0101960E94D81E42
:1009B0000F900F900F900F9026960FB6F894DEBF11
:1009C0000FBECDBFDF91CF911F910F91FF90EF90A0
:1009D000DF90CF90BF90AF900895CF93DF93CDB7C6
:1009E000DEB768970FB6F894DEBF0FBECDBF60913B
:1009F000F8037091F90345E0CE0107960E94880341
:100A0000609101047091020444E0CE0143960E947B
:100A100088036EEA71E0CE010D960E94461FBE016A
:100A20006D5E7F4FCE010D960E94562063EB71E004
:100A30000E946920BE01695F7F4F0E945620BC0161
:100A4000CE0101960E94731F41E060E0CE01019645
:100A50000E94FC03CE0101960E94D81ECE010D9685
:100A60000E94D81ECE0143960E94D81ECE01079642
:100A70000E94D81E1092F9031092F80360913B0176
:100A800070913C0143E0CE0107960E94880360917B
:100A90003D0170913E0144E0CE0143960E948803DF
:100AA00067EB71E0CE010D960E94461FBE016D5EA0
:100AB0007F4FCE010D960E9456206CEB71E00E9494
:100AC0006920BE01695F7F4F0E945620BC01CE01A4
:100AD00001960E94731F41E061E0CE0101960E94E1
:100AE000FC03CE0101960E94D81ECE010D960E94F5
:100AF000D81ECE0143960E94D81ECE0107960E94B2
:100B0000D81E68960FB6F894DEBF0FBECDBFDF913A
:100B1000CF910895CF93DF93CDB7DEB76E970FB621
:100B2000F894DEBF0FBECDBF80911004882319F06A
:100B300062EC71E002C063ED71E0CE0101960E94AB
:100B4000461F40E060E0CE0101960E94FC03CE010A
:100B500001960E94D81E6091140470E042E0CE011C
:100B600007960E94880360913B0170913C0143E02D
:100B7000CE010D960E94880360913D0170913E0167
:100B800043E0CE0149960E94880364EB71E0CE01F8
:100B900043960E94461FBE01675E7F4FCE0143967B
:100BA0000E9456206DED71E00E946920BE01635FD6
:100BB0007F4F0E94562061EE71E00E946920BE01C5
:100BC000695F7F4F0E945620BC01CE0101960E94B2
:100BD000731F41E061E0CE0101960E94FC03CE014B
:100BE00001960E94D81ECE0143960E94D81ECE01C7
:100BF00049960E94D81ECE010D960E94D81ECE01A5
:100C000007960E94D81E6E960FB6F894DEBF0FBEF0
:100C1000CDBFDF91CF910895CF93DF9300D000D067
:100C200000D0CDB7DEB70E945801809101049091A9
:100C300002049093FC038093FB038DE194E00E94F7
:100C4000961365EE71E0CE0101960E94461F41E0C9
:100C500060E0CE0101960E94FC03CE0101960E9445
:100C6000D81E6CE271E083E00E942E0380910B0499
:100C7000811102C00E948A0526960FB6F894DEBF45
:100C80000FBECDBFDF91CF910895CF93DF9300D0FA
:100C900000D000D0CDB7DEB71092100410920F0430
:100CA00010920E048DE194E00E94961366EF71E0BD
:100CB000CE0101960E94461F41E060E0CE01019600
:100CC0000E94FC03CE0101960E94D81E6CE271E0E6
:100CD00082E00E942E0380910B04811102C00E94C9
:100CE0008A0526960FB6F894DEBF0FBECDBFDF9102
:100CF000CF9108954F925F926F927F92AF92BF9281
:100D0000CF92DF92EF92FF920F931F93CF93DF93D7
:100D100000D0CDB7DEB76C010E94C216409003042C
:100D200050900404609005047090060464197509DD
:100D30008609970940902D0150902E01612C712C4D
:100D4000461657066806790608F04AC080910E04D8
:100D500090910F04873E934008F040C040903B01C3
:100D600050903C01720100E010E020913D01309173
:100D70003E0140E050E0B60180E090E01F921F92FB
:100D80001F92EFEFEF93A12CB12C65010E94911EF1
:100D900020912F0180910E0490910F04820F911DDC
:100DA0009A838983CE0101960E945C0180910E0492
:100DB00090910F04019690930F0480930E040E946B
:100DC000C216609303047093040480930504909307
:100DD00006040F900F900F900F9002C00E944506DE
:100DE0000F900F90DF91CF911F910F91FF90EF9097
:100DF000DF90CF90BF90AF907F906F905F904F90BB
:100E000008950F931F93CF93DF9300912F01C0E0BC
:100E1000D0E010E0CE01800F911F0E94C2274AE06F
:100E200050E0682F85E494E00E942B1A2196CE01B1
:100E3000800F911F873E93406CF3DF91CF911F91FC
:100E40000F910C944506882349F010920B048DE114
:100E500094E00E9496130E948A0503C081E080936B
:100E60000B0464EF71E080E090E00C94F116CF93F6
:100E7000DF93CDB7DEB768970FB6F894DEBF0FBE2D
:100E8000CDBF20913D0130913E01280F391F309395
:100E90003E0120933D0120913B0130913C01280F00
:100EA000391F30933C0120933B016CE271E081E0FB
:100EB0000E942E0367E072E0CE0101960E94461F59
:100EC00041E060E0CE0101960E94FC03CE01019654
:100ED0000E94D81E60913B0170913C014AE0CE0116
:100EE00007960E94C11F60913D0170913E014AE04A
:100EF000CE0143960E94C11F68E172E0CE010D96BB
:100F00000E94461FBE016D5E7F4FCE010D960E946E
:100F100056206DE172E00E946920BE01695F7F4F3B
:100F20000E945620BC01CE0101960E94731F41E031
:100F300061E0CE0101960E94FC03CE0101960E9461
:100F4000D81ECE010D960E94D81ECE0143960E9457
:100F5000D81ECE0107960E94D81E0E947C0164EF25
:100F600071E080E090E00E94F11680910B04811105
:100F700002C00E948A0568960FB6F894DEBF0FBEC5
:100F8000CDBFDF91CF910895CF93DF93CDB7DEB77B
:100F900068970FB6F894DEBF0FBECDBF20913B011E
:100FA00030913C0140913D0150913E018091FB0305
:100FB0009091FC030A9790933E0180933D01841B1E
:100FC000950B820F931F90933C0180933B016CE241
:100FD00071E082E00E942E0367E072E0CE0101968C
:100FE0000E94461F41E060E0CE0101960E94FC0392
:100FF000CE0101960E94D81E60913B0170913C0188
:101000004AE0CE0107960E94C11F60913D01709198
:101010003E014AE0CE0143960E94C11F68E172E0A2
:10102000CE010D960E94461FBE016D5E7F4FCE0120
:101030000D960E9456206DE172E00E946920BE016B
:10104000695F7F4F0E945620BC01CE0101960E942D
:10105000731F41E061E0CE0101960E94FC03CE01C6
:1010600001960E94D81ECE010D960E94D81ECE0178
:1010700043960E94D81ECE0107960E94D81E0E9459
:101080007C0168EB7BE080E090E00E94F1168091AB
:101090000B04811102C00E948A0568960FB6F8946D
:1010A000DEBF0FBECDBFDF91CF91089580E00E94DB
:1010B0008C17853823E0920780F4893522E0920767
:1010C00070F4813921E0920760F4893C910558F46D
:1010D0008135910550F084E0089580E0089581E025
:1010E000089582E0089583E0089585E008951F93B0
:1010F000CF93DF930E945608182F882371F0C9E917
:10110000DAE30E945608181308C02197D1F768E562
:1011100072E082E00E942E03165F812FDF91CF9153
:101120001F9108954F925F926F927F928F929F923C
:10113000AF92BF92CF92DF92EF92FF920F931F93E5
:10114000CF93DF93CDB7DEB76C970FB6F894DEBFC1
:101150000FBECDBF8DE194E00E94961363E272E072
:10116000CE0101960E94461F41E060E0CE0101964B
:101170000E94FC03CE0101960E94D81E60E372E03B
:10118000CE0101960E94461F41E061E0CE0101962A
:101190000E94FC03CE0101960E94D81E812C912C46
:1011A000809133012AE5829FC00111248816990697
:1011B00008F054C080E090E00E94D0028C01609161
:1011C000390170913A0180E090E00E9442225B0177
:1011D0006C01609137017091380180E090E00E94CD
:1011E00042222B013C016091140470E080E090E009
:1011F0000E9442229F938F937F936F93B80180E068
:1012000090E00E9442229F938F937F936F9383017C
:10121000720120E030E041E654E460E070E088ECE8
:1012200092E40E94EE010FB6F894DEBF0FBECDBF70
:101230000E941622DC01CB01909300048093FF03EF
:1012400060E070E00E9419033FEF831A930A6AE09E
:1012500070E080E090E00E94F116A2CF6CE271E0B5
:1012600080E090E00E94F11660ED77E081E00E945E
:101270002E036CE271E080E090E00E94F1166BE3D7
:1012800072E0CE0101960E94461F41E061E0CE016E
:1012900001960E94FC03CE0101960E94D81E612C8B
:1012A000712C88248A9463E0962E0E94770881111D
:1012B00063C080E090E00E94D0022C01609139016F
:1012C00070913A0180E090E00E9442225B016C0143
:1012D000609137017091380180E090E00E944222D5
:1012E000698F7A8F8B8F9C8F6091140470E080E0FF
:1012F00090E00E9442229F938F937F936F93B2015D
:1013000080E090E00E9442229F938F937F936F939F
:10131000E98CFA8C0B8D1C8D20E030E041E654E422
:1013200060E070E088EC92E40E94EE010FB6F89461
:10133000DEBF0FBECDBF0E941622DC01CB01909311
:1013400000048093FF0360E070E00E9419034814DA
:10135000590418F44201612C712C3FEF631A730A8F
:1013600081ED681687E0780638F46AE070E080E086
:1013700090E00E94F11699CF8FEF93E02091350114
:1013800030913601821B930B20913401821B91090D
:101390008816990608F072C060ED77E083E00E943D
:1013A0002E0324E1821A910890923E0180923D0121
:1013B0008091350190913601880D991D90933C01E3
:1013C00080933B016AE472E0CE0101960E94461FC1
:1013D00041E060E0CE0101960E94FC03CE0101963F
:1013E0000E94D81E60913B0170913C014AE0CE0101
:1013F00007960E94C11F60913D0170913E014AE035
:10140000CE0143960E94C11F68E172E0CE010D96A5
:101410000E94461FBE016D5E7F4FCE010D960E9459
:1014200056206DE172E00E946920BE01695F7F4F26
:101430000E945620BC01CE0101960E94731F41E01C
:1014400061E0CE0101960E94FC03CE0101960E944C
:10145000D81ECE010D960E94D81ECE0143960E9442
:10146000D81ECE0107960E94D81E0E947C0168EB10
:101470007BE080E090E00E94F11629C08DE194E0CD
:101480000E94961367E572E0CE0101960E94461F06
:1014900041E060E0CE0101960E94FC03CE0101967E
:1014A0000E94D81E61E672E0CE0101960E94461F9E
:1014B00040E061E0CE0101960E94FC03CE0101965E
:1014C0000E94D81E64E670E086E00E942E038DE143
:1014D00094E00E94961380910B04811102C00E9437
:1014E0008A056C960FB6F894DEBF0FBECDBFDF91B4
:1014F000CF911F910F91FF90EF90DF90CF90BF9011
:10150000AF909F908F907F906F905F904F900895D5
:10151000FF920F931F93CF93DF93CDB7DEB7629700
:101520000FB6F894DEBF0FBECDBF0E94580164EF26
:1015300071E080E090E00E94F11660E772E0CE0179
:1015400001960E94461F41E060E0CE0101960E9494
:10155000FC03CE0101960E94D81E60913D0170915E
:101560003E014AE0CE010D960E94C11F69E772E07C
:10157000CE0107960E94461FBE01635F7F4FCE01DA
:1015800007960E945620BC01CE0101960E94731F4F
:1015900041E061E0CE0101960E94FC03CE0101967C
:1015A0000E94D81ECE0107960E94D81ECE010D962D
:1015B0000E94D81E0E945608833061F480913D013C
:1015C00090913E018B30910528F0059790933E0154
:1015D00080933D010E945608843091F420913D0192
:1015E00030913E0180913B0190913C014497281736
:1015F000390730F42B5F3F4F30933E0120933D017C
:101600000E945608182F6CE271E080E090E00E9482
:10161000F116113009F0A1CF60913B0170913C01AE
:101620004AE0CE010D960E94C11F6FE772E0CE0125
:1016300007960E94461FBE01635F7F4FCE0107964B
:101640000E945620BC01CE0101960E94731F41E00A
:1016500061E0CE0101960E94FC03CE0101960E943A
:10166000D81ECE0107960E94D81ECE010D960E946C
:10167000D81E6CE271E080E090E00E94F1160E94BA
:101680005608833091F420913B0130913C018091C8
:101690003D0190913E0144968217930730F4255006
:1016A000310930933C0120933B010E94560884305D
:1016B00069F480913B0190913C018E3D23E09207BB
:1016C00028F4059690933C0180933B010E945608B4
:1016D000813009F0A1CF4AE060913401CE010D962E
:1016E0000E94941F65E872E0CE0107960E94461F93
:1016F000BE01635F7F4FCE0107960E945620BC015A
:10170000CE0101960E94731F41E061E0CE01019677
:101710000E94FC03CE0101960E94D81ECE010796BE
:101720000E94D81ECE010D960E94D81E6CE271E078
:1017300080E090E00E94F1160E945608833039F450
:10174000809134018B3018F08A50809334010E94CC
:101750005608843039F4809134018E3B18F4865F4A
:10176000809334010E945608813009F0B4CF4AE0DA
:1017700060913301CE010D960E94941F6FE872E0D4
:10178000CE0107960E94461FBE01635F7F4FCE01C8
:1017900007960E945620BC01CE0101960E94731F3D
:1017A00041E061E0CE0101960E94FC03CE0101966A
:1017B0000E94D81ECE0107960E94D81ECE010D961B
:1017C0000E94D81E6CE271E080E090E00E94F11669
:1017D0000E945608833039F480913301833018F029
:1017E0008150809333010E945608843039F48091EF
:1017F0003301843118F48F5F809333010E945608BF
:10180000813009F0B4CF4AE060911404CE010D9606
:101810000E94941F6EE972E0CE0107960E94461F57
:10182000BE01635F7F4FCE0107960E945620BC0128
:10183000CE0101960E94731F41E061E0CE01019646
:101840000E94FC03CE0101960E94D81ECE0107968D
:101850000E94D81ECE010D960E94D81E6CE271E047
:1018600080E090E00E94F1160E945608833039F41F
:1018700080911404882319F08150809314040E94ED
:101880005608843039F480911404853018F48F5F41
:10189000809314040E945608813009F0B4CFE0917F
:1018A0001204F0E0EE0FFF1FE05EFE4F60817181D9
:1018B000CE010D960E94461F66EA72E0CE010796A1
:1018C0000E94461FBE01635F7F4FCE0107960E94B4
:1018D0005620BC01CE0101960E94731F41E061E0D9
:1018E000CE0101960E94FC03CE0101960E94D81EF3
:1018F000CE0107960E94D81ECE010D960E94D81EDA
:101900006CE271E080E090E00E94F1160E945608BF
:10191000833039F480911204882319F08150809328
:1019200012040E945608843039F480911204811107
:1019300003C081E0809312040E945608813009F0B0
:10194000AECFE0911104F0E0EE0FFF1FE05EFE4F1E
:1019500060817181CE010D960E94461F62EB72E09C
:10196000CE0107960E94461FBE01635F7F4FCE01E6
:1019700007960E945620BC01CE0101960E94731F5B
:1019800041E061E0CE0101960E94FC03CE01019688
:101990000E94D81ECE0107960E94D81ECE010D9639
:1019A0000E94D81E6CE271E080E090E00E94F11687
:1019B0000E945608833039F480911104882319F06D
:1019C0008150809311040E945608843039F480912C
:1019D0001104811103C081E0809311040E94560814
:1019E000813009F0AECF60913501709136014AE047
:1019F000CE010D960E94C11F60EC72E0CE010796E9
:101A00000E94461FBE01635F7F4FCE0107960E9472
:101A10005620BC01CE0101960E94731F41E061E097
:101A2000CE0101960E94FC03CE0101960E94D81EB1
:101A3000CE0107960E94D81ECE010D960E94D81E98
:101A40006CE271E080E090E00E94F1160E9456087E
:101A5000833061F480913501909136018333910593
:101A600028F00A9790933601809335010E9456081A
:101A7000843069F480913501909136018C3221E0F7
:101A8000920728F40A9690933601809335010E94BC
:101A90005608813009F0A7CF6091390170913A0161
:101AA0004AE0CE010D960E94C11F6DEC72E0CE019E
:101AB00007960E94461FBE01635F7F4FCE010796C7
:101AC0000E945620BC01CE0101960E94731F41E086
:101AD00061E0CE0101960E94FC03CE0101960E94B6
:101AE000D81ECE0107960E94D81ECE010D960E94E8
:101AF000D81E60E070E08091390190913A010E9417
:101B000019036CE271E080E090E00E94F1160E94FF
:101B10005608833061F48091390190913A01833302
:101B2000910528F0C29790933A01809339010E9461
:101B30005608843091F48091390190913A012091B6
:101B4000370130913801245631098217930728F460
:101B5000C29690933A01809339010E9456088130D1
:101B600009F09ACF0E9458016091370170913801B5
:101B70004AE0CE010D960E94C11F67ED72E0CE01D2
:101B800007960E94461FBE01635F7F4FCE010796F6
:101B90000E945620BC01CE0101960E94731F41E0B5
:101BA00061E0CE0101960E94FC03CE0101960E94E5
:101BB000D81ECE0107960E94D81ECE010D960E9417
:101BC000D81E60E070E080913701909138010E944A
:101BD00019036CE271E080E090E00E94F1160E942F
:101BE0005608833091F4809137019091380120910B
:101BF000390130913A012C593F4F2817390728F401
:101C0000C29790933801809337010E945608843020
:101C100069F48091370190913801883223E292076C
:101C200028F4C29690933801809337010E94560899
:101C3000813009F099CF0E94580182E190E00E9422
:101C4000C22780930B04E0910B04F0E0EE0FFF1F1E
:101C5000EC5DFE4F60817181CE010D960E94461FA2
:101C600062EE72E0CE0107960E94461FBE01635FDE
:101C70007F4FCE0107960E945620BC01CE010196EF
:101C80000E94731F41E061E0CE0101960E94FC03B7
:101C9000CE0101960E94D81ECE0107960E94D81E42
:101CA000CE010D960E94D81E6CE271E080E090E0BB
:101CB0000E94F1160E945608833039F480910B047B
:101CC000882319F0815080930B040E9456088430B9
:101CD00039F480910B04823018F48F5F80930B04E9
:101CE0000E945608813009F0AECFE0912C01F0E05F
:101CF000EE0FFF1FEE5EFE4F60817181CE010D96EB
:101D00000E94461F6CEE72E0CE0107960E94461FAD
:101D1000BE01635F7F4FCE0107960E945620BC0133
:101D2000CE0101960E94731F41E061E0CE01019651
:101D30000E94FC03CE0101960E94D81ECE01079698
:101D40000E94D81ECE010D960E94D81E6CE271E052
:101D500080E090E00E94F1160E945608833039F42A
:101D600080912C01882319F0815080932C010E94CE
:101D70005608843039F480912C01833018F48F5F39
:101D800080932C010E945608813009F0AECFE0917B
:101D90000D04F0E0EE0FFF1FE65FFE4F60817181E2
:101DA000CE010D960E94461F66EF72E0CE010796A7
:101DB0000E94461FBE01635F7F4FCE0107960E94BF
:101DC0005620BC01CE0101960E94731F41E061E0E4
:101DD000CE0101960E94FC03CE0101960E94D81EFE
:101DE000CE0107960E94D81ECE010D960E94D81EE5
:101DF0006CE271E080E090E00E94F1160E945608CB
:101E0000833039F480910D04882319F08150809338
:101E10000D040E945608843039F480910D048330FB
:101E200018F48F5F80930D040E945608813009F0EA
:101E3000AECFE0910C04F0E0EE0FFF1FE05EFE4F2E
:101E400060817181CE010D960E94461F60E073E0B3
:101E5000CE0107960E94461FBE01635F7F4FCE01F1
:101E600007960E945620BC01CE0101960E94731F66
:101E700041E061E0CE0101960E94FC03CE01019693
:101E80000E94D81ECE0107960E94D81ECE010D9644
:101E90000E94D81E6CE271E080E090E00E94F11692
:101EA0000E945608833039F480910C04882319F07D
:101EB000815080930C040E945608843039F480913C
:101EC0000C04811103C081E080930C040E94560829
:101ED000813009F0AECFE0911004F0E0EE0FFF1F6B
:101EE000E65EFE4F60817181CE010D960E94461F15
:101EF0006DE073E0CE0107960E94461FBE01635F4E
:101F00007F4FCE0107960E945620BC01CE0101965C
:101F10000E94731F41E061E0CE0101960E94FC0324
:101F2000CE0101960E94D81ECE0107960E94D81EAF
:101F3000CE010D960E94D81E6CE271E080E090E028
:101F40000E94F1160E945608833039F480911004E3
:101F5000882319F08150809310040E945608843021
:101F600039F480911004823018F48F5F809310044C
:101F70000E945608813009F0AECFF12C0F2D10E0F1
:101F8000F801EE0FFF1FE05EFE4F60817181CE0110
:101F90000D960E94461F67E173E0CE0107960E94EE
:101FA000461FBE01635F7F4FCE0107960E945620F9
:101FB000BC01CE0101960E94731F41E061E0CE0199
:101FC00001960E94FC03CE0101960E94D81ECE010C
:101FD00007960E94D81ECE010D960E94D81E6CE274
:101FE00071E080E090E00E94F1160E945608833074
:101FF00021F40130110509F4F12C0E9456088430B7
:1020000011F4FF24F3940E945608813009F0B6CFF2
:10201000FF2039F060E080E090E00E94CA270C9435
:10202000000080911004823011F40E940107809119
:102030001004813021F410920F0410920E040E94BB
:102040007C0163E273E0CE0101960E94461F41E0ED
:1020500061E0CE0101960E94FC03CE0101960E9430
:10206000D81E68EB7BE080E090E00E94F1168DE1E5
:1020700094E00E94961380910B04811102C00E948B
:102080008A0562960FB6F894DEBF0FBECDBFDF9112
:10209000CF911F910F91FF900895CF93DF93CDB70C
:1020A000DEB762970FB6F894DEBF0FBECDBF60E01B
:1020B00080915F010E94FA1720E042E060E18DE12B
:1020C00094E00E94B7138DE194E00E9496136FE2B2
:1020D00073E0CE0101960E94461F41E060E0CE0110
:1020E00001960E94FC03CE0101960E94D81E68EE64
:1020F00073E080E090E00E94F11640E855E260E075
:1021000070E085E494E00E945A1980E090E00E941B
:10211000C227813019F40E941B0402C00E947C0176
:102120000E94C21660930304709304048093050414
:102130009093060480913B0190913C019093FE03A3
:102140008093FD0380913D0190913E019093FC03AB
:102150008093FB030E9449036BEC73E0CE010D9664
:102160000E94461F6BE373E0CE0107960E94461F54
:10217000BE01635F7F4FCE0107960E945620BC01CF
:10218000CE0101960E94731F41E060E0CE010196EE
:102190000E94FC03CE0101960E94D81ECE01079634
:1021A0000E94D81ECE010D960E94D81E6BEB73E0E4
:1021B000CE0101960E94461F40E061E0CE010196EB
:1021C0000E94FC03CE0101960E94D81E60ED77E0CC
:1021D00080E090E00E94F11680910B04811102C012
:1021E0000E948A050E94C216609307047093080437
:1021F0008093090490930A0462960FB6F894DEBFA8
:102200000FBECDBFDF91CF9108952F923F924F9295
:102210005F926F927F928F929F92AF92BF92CF9276
:10222000DF92EF92FF920F931F93CF93DF93CDB77F
:10223000DEB760970FB6F894DEBF0FBECDBF8091BA
:102240002C0190E00E94D00290930204809301043C
:1022500080910B04882309F45AC00E94C216009191
:102260000704109108042091090430910A04601BAE
:10227000710B820B930B00912A0110912B0120E02E
:1022800030E0061717072807390708F040C080918B
:102290000B04813011F40E94ED0480910B04823014
:1022A00061F50E94E703882329F1E0903B01F0905B
:1022B0003C0100E010E020913D0130913E0140E002
:1022C00050E0609101047091020480E090E01F9260
:1022D0001F921F921F92E0EAAE2EB12CC12CD12C7E
:1022E0000E94911E862F0E9495040F900F900F90D0
:1022F0000F9003C082E00E9495040E94C216609372
:102300000704709308048093090490930A04C09012
:102310000104D090020480903D0190903E01C814C9
:10232000D90418F40E940C06CFC040903B01509095
:102330003C01C414D50408F09EC080911204209082
:102340003701309038010091390110913A01612C28
:10235000712C940140E050E02D833E834F835887D9
:10236000960140E050E029873A874B875C878823B5
:1023700049F0B10180E090E00E9442225B016C01D3
:10238000B80108C0B80180E090E00E9442225B01E1
:102390006C01B10180E090E00E94422269837A835F
:1023A0008B839C83C301B2010E9442229B01AC013A
:1023B0006D817E818F8198852D873E874F87588BD1
:1023C0000E9442222B013C016091140470E080E0E5
:1023D00090E00E9442229F938F937F936F93698531
:1023E0007A858B859C850E9442229F938F937F9351
:1023F0006F93E980FA800B811C812D853E854F8586
:102400005889C301B2010E94EE010FB6F894DEBFF5
:102410000FBECDBF0E941622709300046093FF038D
:1024200080910C048823A1F08091FF039091000417
:102430002091310130913201A101421B530B481709
:10244000590730F4820F931F909300048093FF0389
:1024500060E070E08091FF03909100040E941903F6
:1024600080911004882381F18091010490910204ED
:102470000E947A0629C080913401480E511CC41470
:10248000D504B8F480911204882349F08091370173
:102490009091380160E070E088539F4F07C08091B1
:1024A000390190913A0160E070E04E970E94190363
:1024B0000BC080911104882329F060E070E081E076
:1024C00090E0F4CF0E9458018091010490910204A1
:1024D0002091FD033091FE038217930720F490931F
:1024E000FE038093FD030E9477088093FA038823FC
:1024F000C1F1813011F40E94880A8091FA0385307D
:1025000049F480913B0190913C019093FE038093AC
:10251000FD0304C08F3011F40E9492088091FA03E9
:10252000823049F480910B04882311F081E001C0CE
:1025300080E00E9423078091FA03833021F486EF24
:102540009FEF0E9437078091FA038D3011F40E94AB
:10255000C4078091FA03843021F48AE090E00E945D
:10256000370780910D04882371F0815065E070E099
:1025700002C0660F771F8A95E2F7882777FD80955E
:10258000982F0E94F1168091F8039091F90301961B
:102590009093F9038093F80360960FB6F894DEBF2A
:1025A0000FBECDBFDF91CF911F910F91FF90EF90A4
:1025B000DF90CF90BF90AF909F908F907F906F9063
:1025C0005F904F903F902F900895CF92EF920F938E
:1025D000F7E0CF2EA6E0EA2E05E024E049E068E02F
:1025E0008DE194E00E94551400E020E040E16DE1AF
:1025F00074E085E194E00E94B5140F91EF90CF90C4
:102600000895CF93DF93EC0160E08E810E94331830
:1026100081E090E00E942B1761E08E810E943318C8
:1026200081E090E00E942B1760E08E810E943318B9
:1026300084E690E0DF91CF910C942B17EF92FF92FC
:102640000F931F93CF93DF938C01C0E0D0E0E62E71
:10265000F12CB7010C2E02C0759567950A94E2F72C
:102660006170F801EC0FFD1F87810E9433182196DD
:10267000C430D10571F7C801DF91CF911F910F913F
:10268000FF90EF900C940113EF92FF920F931F9322
:10269000CF93DF938C01C0E0D0E0E62EF12CB701A0
:1026A0000C2E02C0759567950A94E2F76170F801E7
:1026B000EC0FFD1F87810E9433182196C830D10589
:1026C00071F7C801DF91CF911F910F91FF90EF90AB
:1026D0000C9401131F93CF93DF93EC01162F642FFB
:1026E0008C810E9433188D818F3F19F060E00E9429
:1026F00033188F85612F84FF06C0CE01DF91CF9103
:102700001F910C94441370E084E0759567958A9549
:10271000E1F7CE010E941E13612FCE01DF91CF9110
:102720001F910C941E1340E00C946A1361E00E9408
:10273000931380ED97E00C942B17443008F043E09E
:10274000FC012389421710F04FEF420FFC01E40F08
:10275000F11D2489260F2068622F0C949313FC012D
:102760006089262F2460208B6C600C9493130F9348
:102770001F93CF93DF93EC01423018F08F85886070
:102780008F874B8B1C8A80E48D8B6E8B70E0605C36
:102790007F4F6F8B222329F0413019F48F8584609D
:1027A0008F8761E08C810E94FA178D818F3F19F02D
:1027B00061E00E94FA1761E08E810E94FA1700E042
:1027C00010E08F8584FF03C088E090E002C084E0C1
:1027D00090E00817190754F4FE01E00FF11F61E0C3
:1027E00087810E94FA170F5F1F4FEBCF80E593ECB4
:1027F0000E942B1760E08C810E94331860E08E816C
:102800000E9433188D818F3F19F060E00E943318C9
:102810006F8564FD1DC063E0CE010E941E1384E934
:1028200091E10E942B1763E0CE010E941E1384E900
:1028300091E10E942B1763E0CE010E941E1386E9EE
:1028400090E00E942B1762E0CE010E941E1316C07A
:102850006062CE010E94931384E991E10E942B17DC
:102860006F856062CE010E94931386E990E00E941A
:102870002B176F856062CE010E9493136F85606293
:10288000CE010E94931384E0888BCE010E94AF1387
:10289000CE010E94961382E0898B66E0CE01DF9123
:1028A000CF911F910F910C949313CF92EF920F93AE
:1028B000FC011382128284ED93E091838083648310
:1028C0008FEF8583468327830087E186C286138640
:1028D000148615861686178620E041E060E1CF0158
:1028E0000F91EF90CF900C94B713CF92DF92EF92AD
:1028F000FF920F931F93CF93DF9300D0CDB7DEB736
:102900008C01677088E0689FB00111246064C80181
:1029100049835A830E9493134981C42E5A81D52E2C
:10292000E12CF12CD6016D916D01D801ED91FC9156
:102930000190F081E02DC8010995BFEFEB1AFB0A69
:10294000E8E0EE16F10471F70F900F90DF91CF9150
:102950001F910F91FF90EF90DF90CF90089541E08D
:102960000E946A1381E090E008950F93CF93DF9364
:10297000EC01CB01798368834A832B830C8341E884
:1029800051E060E00E94751449E751E061E0888100
:1029900099810E94751441E751E062E08881998134
:1029A0000E94751449E651E063E0888199810E9494
:1029B000751441E651E064E0888199810E947514A4
:1029C0001E821D821F82DF91CF910F9108958F92F9
:1029D0009F92AF92BF92CF92DF92EF92FF920F93AE
:1029E0001F93CF93DF93EC012A8130E0DB010E943B
:1029F0002B254B015C016A01EE24D7FCE094FE2CF0
:102A0000A70196010E940625022F122FA5E0B0E033
:102A1000A50194010E943225A70196010E94062576
:102A2000CA01B90125E030E040E050E00E940625EF
:102A3000D62EB62EE62EF12C85E0089FE00CF11C78
:102A400011248D819E818E159F05B1F14C816B8182
:102A5000888199810E949D13C12CC11660F48881E0
:102A60009981DC01ED91FC910190F081E02D60E015
:102A70000995C394F2CFBB2061F088819981DC0174
:102A8000ED91FC910190F081E02D6D2D099511E003
:102A9000100F012F8F81081760F488819981DC0164
:102AA000ED91FC910190F081E02D60E209950F5FBE
:102AB000F1CF1F83FE82ED82DF91CF911F910F91A5
:102AC000FF90EF90DF90CF90BF90AF909F908F904E
:102AD00008957F928F929F92AF92BF92CF92DF9292
:102AE000EF92FF920F931F93CF93DF9300D000D00C
:102AF000CDB7DEB7782E4A015B016801790160E04D
:102B000079E08DE390E0A50194010E94E424215036
:102B10003109410951092115310581E04807510565
:102B200050F0232F342F452F5527215031094109CB
:102B3000510914E001C011E0C114D104E104F10411
:102B4000B9F029833A834B835C830E94C2166C0DD3
:102B50007D1D8E1D9F1D60933804709339048093F2
:102B60003A0490933B0429813A814B815C810CC0EB
:102B7000CC24CA94DC2C7601C0923804D09239045B
:102B8000E0923A04F0923B0480913704811127C00F
:102B9000872D90E0FC01E958FE4FE491E093370463
:102BA0008A569E4FFC01649170E0660F771F6B544C
:102BB0007E4FFB01A591B491B0933604A0933504E8
:102BC000FC018491E82FF0E0EE0FFF1FED53FE4F64
:102BD000A591B4918C9190913704892B8C9330936B
:102BE0008700209386008091840090918500A0E06A
:102BF000B0E0281739074A075B0720F430938500B7
:102C00002093840010611093810080E18093800004
:102C100080916F00826080936F000F900F900F90F3
:102C20000F90DF91CF911F910F91FF90EF90DF9068
:102C3000CF90BF90AF909F908F907F900895EFE6D8
:102C4000F0E080818D7F808382E08093810081E04D
:102C500080938000E0913504F0913604908180915A
:102C600037048095892380831092370408951F923A
:102C70000F920FB60F9211240F931F932F933F9330
:102C80004F935F936F937F938F939F93AF93BF9374
:102C9000EF93FF930E94C2160091380410913904FB
:102CA00020913A0430913B04601771078207930723
:102CB00018F080E00E941F16E0913504F091360470
:102CC00080819091370489278083FF91EF91BF9194
:102CD000AF919F918F917F916F915F914F913F91B4
:102CE0002F911F910F910F900FBE0F901F9018956D
:102CF0001F920F920FB60F9211242F933F938F9331
:102D00009F93AF93BF9380913D0490913E04A09117
:102D10003F04B091400430913C0423E0230F2D3751
:102D200020F40196A11DB11D05C026E8230F0296CF
:102D3000A11DB11D20933C0480933D0490933E045B
:102D4000A0933F04B09340048091410490914204C9
:102D5000A0914304B09144040196A11DB11D80933C
:102D6000410490934204A0934304B0934404BF9160
:102D7000AF919F918F913F912F910F900FBE0F9028
:102D80001F9018952FB7F89460913D0470913E0400
:102D900080913F04909140042FBF08953FB7F8946D
:102DA0008091410490914204A0914304B091440465
:102DB00026B5A89B05C02F3F19F00196A11DB11D96
:102DC0003FBF6627782F892F9A2F620F711D811DB3
:102DD000911D42E0660F771F881F991F4A95D1F712
:102DE00008958F929F92AF92BF92CF92DF92EF920F
:102DF000FF926B017C010E94CE164B015C01C11455
:102E0000D104E104F104F1F00E94A9200E94CE1641
:102E1000681979098A099B09683E73408105910503
:102E200070F321E0C21AD108E108F10888EE880E9B
:102E300083E0981EA11CB11CC114D104E104F1046B
:102E400029F7DDCFFF90EF90DF90CF90BF90AF904C
:102E50009F908F9008958230910538F0880F991FC8
:102E6000880F991F05970197F1F70895789484B515
:102E7000826084BD84B5816084BD85B5826085BD76
:102E800085B5816085BDEEE6F0E08081816080835C
:102E9000E1E8F0E01082808182608083808181603F
:102EA0008083E0E8F0E0808181608083E1E9F0E008
:102EB000808182608083808181608083E0E9F0E0AE
:102EC000808181608083E1ECF0E080818460808398
:102ED000808182608083808181608083E3ECF0E088
:102EE000808181608083E0ECF0E08081826080837B
:102EF000E2ECF0E0808181608083EAE7F0E08081AD
:102F0000846080838081826080838081816080830F
:102F10008081806880830895823108F08251E82F93
:102F2000F0E0E45BFE4FE49180917B00E3FB22271D
:102F300020F930E095E0220F331F9A95E1F78F7D5D
:102F4000822B80937B00E7708091890120E4829F2F
:102F5000C0011124E82BE0937C0080917A0080640A
:102F600080937A0080917A0086FDFCCF8091780072
:102F70002091790090E0922B089590E0FC01319728
:102F8000EF30F105B0F5EA5AFF4F0C9425258091FA
:102F900080008F7703C0809180008F7D80938000B8
:102FA000089580918000877FF9CF84B58F7702C024
:102FB00084B58F7D84BD0895809190008F7707C080
:102FC000809190008F7D03C080919000877F8093D7
:102FD000900008958091C0008F7703C08091C00059
:102FE0008F7D8093C00008958091C200877F809379
:102FF000C2000895CF93DF9390E0FC01E958FE4FA3
:103000002491FC01EA56FE4F8491882349F190E017
:10301000880F991FFC01ED53FE4FA591B4918B547D
:103020009E4FFC01C591D4919FB7611108C0F894DF
:103030008C91209582238C93888182230AC06230F0
:1030400051F4F8948C91322F309583238C9388819E
:10305000822B888304C0F8948C91822B8C939FBF21
:10306000DF91CF9108950F931F93CF93DF931F921A
:10307000CDB7DEB7282F30E0F901E85AFE4F849132
:10308000F901E958FE4F1491F901EA56FE4F0491F7
:103090000023C9F0882321F069830E94BD1769814C
:1030A000E02FF0E0EE0FFF1FEB54FE4FA591B4911F
:1030B0009FB7F8948C91611103C01095812301C0D2
:1030C000812B8C939FBF0F90DF91CF911F910F9118
:1030D0000895CF93DF931F92CDB7DEB76983DC01EC
:1030E000ED91FC910280F381E02D41E050E0BE01C2
:1030F0006F5F7F4F09950F90DF91CF910895CF9328
:10310000DF93EC018C859D8597FF05C082E00E94CE
:10311000531B9D878C878C859D85DF91CF9108956A
:1031200083E00C94E71DFC018485958597FD06C01E
:1031300082E00E94FB1A90E00196089582E00E94CE
:10314000FB1A90E00895FC018485958597FD05C0E4
:103150002FEF3FEF35872487089582E00C94531BAF
:10316000CF93DF93EC0180919501882331F083E0C8
:103170000E94841B1816190634F081E090E09B83AE
:103180008A8380E090E0DF91CF910895FC01208157
:103190002E5F208342E450E061ED71E080E80C9402
:1031A0001F1CFC0121818081813A59F4213209F0F0
:1031B0004BC047E050E06EE871E080E00E941F1CC9
:1031C0005EC0813209F040C0233289F4838190E0EF
:1031D000982F88273281832BA0E0B0E080938A016A
:1031E00090938B01A0938C01B0938D010FC020327E
:1031F00039F467E070E08EE891E00E94501C09C04D
:10320000223221F482818093950103C02D7F2032E8
:10321000B1F580919504811103C0E0E0F8E002C0AF
:10322000EEEFFAE080918E0190918F01A0919001D4
:10323000B0919101803B9440A105B10511F58091B9
:10324000950180FF03C01DC080E00895EE3F2AE095
:10325000F20731F0808191819093FF0A8093FE0AFA
:1032600087E797E7918380832BE088E190E00FB6B2
:10327000F894A895809360000FBE2093600081E0D1
:10328000089588E10FB6F894809360001092600072
:103290000FBEA895EE3F8AE0F80739F08091FE0A4C
:1032A0009091FF0A91838083EACF1092FF0A1092D7
:1032B000FE0AE5CF2FEF3FEFFC0135872487089505
:1032C000109248041092470488EE93E0A0E0B0E02A
:1032D0008093490490934A04A0934B04B0934C0408
:1032E0008CED93E090934604809345048FEF9FEF1D
:1032F00090935204809351040895CF92DF92EF92FD
:10330000FF920F931F93CF93DF937C016A01EB0130
:1033100000E010E00C151D0571F06991D701ED91E9
:10332000FC910190F081E02DC7010995892B19F0DE
:103330000F5F1F4FEFCFC801DF91CF911F910F910A
:10334000FF90EF90DF90CF9008956115710581F0A7
:10335000DB010D900020E9F7AD0141505109461BFA
:10336000570BDC01ED91FC910280F381E02D099473
:1033700080E090E00895DC01ED91FC91DB01149672
:103380004D915C9115976D917C910280F381E02DB8
:1033900009940C94A51968EE73E00C94A5198F920A
:1033A0009F92AF92BF92DF92EF92FF920F931F9383
:1033B000CF93DF93CDB7DEB7A1970FB6F894DEBFFA
:1033C0000FBECDBF7C01F42FD52ECB0119A2223028
:1033D00008F42AE08E010F5D1F4F822E912CA12C44
:1033E000B12C6F2F7D2DA50194010E94E424F22FB2
:1033F000D32ECA01015011096A3014F4E0E301C070
:10340000E7E3E60FD801EC93232B242B252B49F778
:10341000B801C7010E94A519A1960FB6F894DEBFA6
:103420000FBECDBFDF91CF911F910F91FF90EF9015
:10343000DF90BF90AF909F908F9008952115310538
:1034400041F4DC01ED91FC910190F081E02D642FBD
:1034500009940C94CF190F931F93CF93DF93EC0132
:103460009A01462F50E060E070E00E941E1A8C0125
:10347000CE010E94CB19800F911FDF91CF911F9138
:103480000F910895615030F02091F100FC012083EC
:103490000196F8CF289884E680939F040895409180
:1034A0009A0450919B0420919804309199044217FA
:1034B0005307B4F49091E8009570E1F39091E8001F
:1034C00092FD19C08093F10080919A0490919B0421
:1034D00001968F739927892B19F48EEF8093E8005A
:1034E00080919A0490919B04019690939B04809301
:1034F0009A0481E0089580E00895CF92DF92EF92E0
:10350000FF920F931F93CF93DF931F92CDB7DEB738
:10351000082F162FF42E862F880F8E5F99830E9416
:103520004F1A83E00E944F1AE02EC02E9981D92EA7
:103530008C2D8E19811798F4F601F7FE02C0849144
:1035400001C080810E944F1A082F80E00E944F1A0C
:103550008023FFEFCF1ADF0A8111EACF01C081E09B
:103560000F90DF91CF911F910F91FF90EF90DF901F
:10357000CF9008958091D70081608093D70080EA32
:103580008093D80089B5806189BD89B5826089BD85
:1035900009B400FEFDCF61E070E080E090E00E94A1
:1035A000F1168091D8008F7C80618093D800809143
:1035B000E000807F8093E0000895CF93DF931F9217
:1035C000CDB7DEB71982CE0101960E94C6180E94BF
:1035D0003121BE016F5F7F4F0E94AA2089810F9029
:1035E000DF91CF9108952FB7FC012083F894677085
:1035F0006093E9000895CF93DF931F92CDB7DEB7B4
:10360000682FCE0101960E94F31A8091F2009981F1
:103610009FBF0F90DF91CF910895FF920F931F935B
:10362000CF93DF9300D0CDB7DEB7F62E8A0190910D
:103630009E04992311F057FF03C08FEF9FEF2BC01B
:10364000682FCE0101967A830E94F31A8091F200CE
:1036500090E0A8017A81801791070CF4AC01EF2D5E
:10366000F72FF40E84E6FE1639F0289880939F0415
:103670009091F1009193F7CF4115510521F0809180
:10368000F200882321F089818FBFCA0104C08BE634
:103690008093E800F8CF0F900F90DF91CF911F91AA
:1036A0000F91FF900895CF93DF931F92CDB7DEB7B0
:1036B00041E050E0BE016F5F7F4F0E940D1B0197FC
:1036C00019F4898190E002C08FEF9FEF0F90DF9196
:1036D000CF910895CF93DF931F92CDB7DEB7682FB8
:1036E000CE0101960E94F31A9091E800892F807212
:1036F00095FF04C09091F20080E4891B99819FBFDF
:103700000F90DF91CF9108956F927F928F929F9249
:10371000AF92BF92CF92DF92EF92FF920F931F93DF
:10372000CF93DF931F92CDB7DEB7782E7B01C42EE7
:10373000B52E80919E04882369F0042F152F8AEFFF
:10374000D82E872D8072982E9AE3A92E872D80740B
:10375000882E11C08FEF9FEF57C0872D0E946A1BE4
:10376000682E81110CC0DA94A9F361E070E080E06A
:1037700090E00E94F1160115110579F73BC0282F42
:1037800030E0021713070CF4602E672DCE0101966E
:103790000E94F31A8091E80085FF29C0262D30E0B1
:1037A000021B130B992039F06A948FEF6816B1F061
:1037B0001092F100F9CFF701862D77FE07C08150F6
:1037C00058F094919093F1003196F9CF815020F008
:1037D00091919093F100FACFE20EF31E8091E800F0
:1037E00085FF0FC00115110511F481100AC08981F0
:1037F0008FBFC1CF5D9884E68093A0048C2D9B2D54
:1038000003C0A092E800F3CF0F90DF91CF911F91FA
:103810000F91FF90EF90DF90CF90BF90AF909F906F
:103820008F907F906F9008951092E90010929B0402
:1038300010929A0490939904809398040895CF92DB
:10384000DF92FF920F931F93CF93DF9300D0CDB7FA
:10385000DEB7F82E8A016B0101151105B1F0F601F2
:10386000F7FE02C0849101C0808149835A830E947F
:103870004F1A01501109FFEFCF1ADF0A49815A810F
:103880008111EACF8FEF9FEF01C0CA010F900F9017
:10389000DF91CF911F910F91FF90DF90CF9008950E
:1038A000BF92CF92DF92EF92FF920F931F93CF932D
:1038B000DF936C018B01EB013BEFB32E2097C1F03E
:1038C0007E01C134D1051CF020E4E22EF12C809160
:1038D000E80082FFFCCFC8018C1B9D0B6E2D8C0D68
:1038E0009D1D0E94421AB092E800CE19DF09E6CF72
:1038F000C801DF91CF911F910F91FF90EF90DF9062
:10390000CF90BF9008951F920F920FB60F9211247F
:10391000DF92EF92FF920F931F932F933F934F935A
:103920005F936F937F938F939F93AF93BF93EF9327
:10393000FF93CF93DF93CDB7DEB76C97DEBFCDBFDC
:103940001092E9008091E80083FF23C168E0CE0176
:1039500045960E94421A82EF8093E8003D8937FF26
:1039600005C08091E80080FFFCCF03C08EEF8093FC
:10397000E800832F807609F0F0C02E894F89D88C1B
:1039800021110CC0303829F480919D048093F100FE
:1039900002C01092F1001092F100F4C0842F90E068
:1039A0009D29213049F43111EDC0019709F0EAC099
:1039B00080919D048D7F0AC0233059F43111E2C0FB
:1039C000019709F0DFC080919D04826080939D047F
:1039D000D9C0253041F48091E80080FFFCCF4068D9
:1039E0004093E300CFC0263009F08DC0EB8CFC8CF7
:1039F00022E0D2122CC080E090E00E94141C0E94B1
:103A0000DD1A99E08E010F5F1F4FF801292F1192E7
:103A10002A95E9F79983DA8291E09E8390EA988764
:103A20009AEF998720919A0430919B04275F3F4F2A
:103A30003C832B838D83C7010E94141C49E050E016
:103A4000B80180E00E941F1C0E94DD1A9BC0C701C4
:103A50000E94141C0E943121BE016B5E7F4F0E94A8
:103A6000D320009719F00CF08DC090C081E0D812DF
:103A70000EC08B8D9C8D089719F481E0809397047C
:103A80008091970481112FC065E272E031C0E3E0BC
:103A9000DE127CC08F89882349F1823029F440E806
:103AA00060E183E492E01CC0813029F440E86BE0DF
:103AB00087E392E015C0833009F068C00E9431218D
:103AC0008E010F5F1F4FB8010E94F220F801019094
:103AD0000020E9F73197E01BF10B40E06E2FC801A1
:103AE0000E947D1A4DC063E172E002C064E572E09D
:103AF0006115710509F44AC0FB01449150E080E86A
:103B00000E941F1C3FC0273009F440C0283021F418
:103B100081E08093F10036C02930A1F53370B1F512
:103B2000E7E9F1E081E021E036E39081992361F05B
:103B30008093E9002093EB0091919093EC003093F7
:103B4000ED008F5F873089F78EE78093EA0010924F
:103B5000EA008F8980939E0415C08B8D9C8D0E94F6
:103B6000141C898D811105C0CE0145960E94D11883
:103B700007C00E943121BE016B5E7F4F0E94112160
:103B8000882321F08EEF8093E80003C081E28093C8
:103B9000EB006C960FB6F894DEBF0FBECDBFDF9181
:103BA000CF91FF91EF91BF91AF919F918F917F91B5
:103BB0006F915F914F913F912F911F910F91FF90C6
:103BC000EF90DF900F900FBE0F901F90189580938D
:103BD000E9008091F200882319F08AE38093E800DD
:103BE00008951F920F920FB60F9211242F933F93B7
:103BF0004F935F936F937F938F939F93AF93BF93F5
:103C0000CF93EF93FF93C091E1008091E100837F18
:103C10008093E1008093E100C3FF0FC01092E900A0
:103C200081E08093EB001092EC0082E38093ED0042
:103C300010929E0488E08093F000C2FF19C083E0D8
:103C40000E94E71D8091A004882339F08091A00490
:103C500081508093A004882389F180919F04882358
:103C600039F080919F04815080939F04882341F113
:103C7000C4FF10C08091E2008E7E81608093E200DC
:103C80008091E1008F7E8093E10080919C048E7E84
:103C9000806111C0C0FF16C08091E2008E7E8061FD
:103CA0008093E2008091E1008E7E8093E10080911C
:103CB0009C048E7E816080939C0404C05D9ACDCF6D
:103CC000289AD6CFFF91EF91CF91BF91AF919F915D
:103CD0008F917F916F915F914F913F912F910F90B5
:103CE0000FBE0F901F90189510929E0410929D0485
:103CF00010929C040E94BA1A8091E1008E7E8093FB
:103D0000E1008DE08093E200559A209AEEEFFFE704
:103D1000859194918B3F9C4D19F481E0809395049B
:103D200008954F925F926F927F92AF92BF92CF921F
:103D3000DF92EF92FF920F931F93CF93DF93CDB754
:103D4000DEB729013A01621B730B840B950B29899D
:103D50003A894B895C892A193B094C095D09298BF1
:103D60003A8B4B8B5C8B9B01AC0169897A898B897F
:103D70009C890E94C024E418F50806091709A801C7
:103D800097010E9406252A0D3B1D4C1D5D1DCA0191
:103D9000B901DF91CF911F910F91FF90EF90DF90CC
:103DA000CF90BF90AF907F906F905F904F900895AD
:103DB000FC01808191810C94F825CF93DF93EC0175
:103DC00088819981009711F00E94F8251982188244
:103DD0001D821C821B821A82DF91CF9108950F935E
:103DE0001F93CF93DF93EC018B016F5F7F4F88812F
:103DF00099810E948726009731F0998388831B83DD
:103E00000A8381E001C080E0DF91CF911F910F9183
:103E10000895CF93DF93EC0188819981892B29F054
:103E20008A819B818617970760F4CE010E94EF1E5E
:103E3000882341F08C819D81892B19F4E881F981D7
:103E4000108281E0DF91CF910895EF92FF920F935E
:103E50001F93CF93DF93EC017B018A01BA010E948B
:103E6000091F811104C0CE010E94DD1E07C01D8301
:103E70000C83B701888199810E945A27CE01DF9176
:103E8000CF911F910F91FF90EF900895FC01118247
:103E9000108213821282158214826115710559F005
:103EA000FB0101900020E9F7AF0141505109461B89
:103EB000570B0C94251F0895CF93DF93EC01FB0162
:103EC0008617970761F0608171816115710529F08E
:103ED000448155810E94251F02C00E94DD1ECE0133
:103EE000DF91CF910895FC0111821082138212821A
:103EF000158214820C945C1FCF93DF93EC01611543
:103F0000710561F0FB0101900020E9F7AF0141501C
:103F10005109461B570B0E94251F02C00E94DD1E3F
:103F2000CE01DF91CF9108950F931F93CF93DF932D
:103F3000CDB7DEB729970FB6F894DEBF0FBECDBF61
:103F40008C01862FF8011182108213821282158251
:103F5000148250E0BE016F5F7F4F90E00E949D276A
:103F6000BE016F5F7F4FC8010E947C1F29960FB66C
:103F7000F894DEBF0FBECDBFDF91CF911F910F919F
:103F800008950F931F93CF93DF93CDB7DEB761975B
:103F90000FB6F894DEBF0FBECDBF8C01CB01F80188
:103FA00011821082138212821582148250E0BE01A7
:103FB0006F5F7F4F0E949D27BE016F5F7F4FC801DB
:103FC0000E947C1F61960FB6F894DEBF0FBECDBF76
:103FD000DF91CF911F910F9108950F931F93CF936E
:103FE000DF93CDB7DEB7A2970FB6F894DEBF0FBE52
:103FF000CDBF8C01CB01BA01F8011182108213826E
:1040000012821582148230E0AE014F5F5F4F0E9432
:104010006127BE016F5F7F4FC8010E947C1FA2967F
:104020000FB6F894DEBF0FBECDBFDF91CF911F91C9
:104030000F910895EF92FF920F931F93CF93DF9309
:10404000EC017B010C811D816115710511F480E08B
:1040500016C04115510591F0040F151FB8010E94BB
:10406000091F8823A1F3288139818C819D81B701A3
:10407000820F931F0E945A271D830C8381E0DF91DA
:10408000CF911F910F91FF90EF90089561157105E9
:1040900059F0FB0101900020E9F7AF0141505109AF
:1040A000461B570B0C941A2080E00895CF93DF93A2
:1040B000EC01FB0144815581608171810E941A20CD
:1040C000811103C0CE010E94DD1ECE01DF91CF9190
:1040D0000895CF93DF93EC016115710569F0FB0141
:1040E00001900020E9F7AF0141505109461B570BE1
:1040F0000E941A20811103C0CE010E94DD1ECE0154
:10410000DF91CF910895FC0184819581681779072B
:1041100020F480819181009729F41092A10481EA12
:1041200094E00895860F971F089508950E9436170A
:104130000E94952086E994E00E94741E0E944D1012
:10414000C0E0D0E00E9405112097E1F30E9400003A
:10415000F9CF0895EF92FF920F931F93CF93DF93C0
:104160007B01FC01C281D38100E010E0209781F047
:10417000E881F9810280F381E02DB701CE01099534
:1041800097FD08C0080F191F0884D985C02DEECFF0
:10419000C80102C08FEF9FEFDF91CF911F910F9168
:1041A000FF90EF9008950F931F93CF93DF938B01B0
:1041B000FC01C281D381209771F0E881F9810480EC
:1041C000F581E02DB801CE010995009731F40884FE
:1041D000D985C02DF0CF80E090E0DF91CF911F9185
:1041E0000F9108950F931F93CF93DF938B01FC01E1
:1041F000C281D381209771F0E881F9810680F7812F
:10420000E02DB801CE010995080F111D0884D9854C
:10421000C02DF0CFF8011082DF91CF911F910F9147
:1042200008950F931F93CF93DF938B01FC01C281FD
:10423000D381209771F0E881F9810190F081E02D20
:10424000B801CE010995811106C00884D985C02D19
:10425000F0CF80E001C081E0DF91CF911F910F91FD
:1042600008958091A60481110DC082E08093A2047C
:1042700084E08093A3041092A5041092A40481E02A
:104280008093A60482EA94E008955058BB27AA2799
:104290000ED070C161D130F066D120F031F49F3F73
:1042A00011F41EF456C10EF4E095E7FB4CC1E92F62
:1042B00072D180F3BA17620773078407950718F065
:1042C00071F49EF58AC10EF4E0950B2EBA2FA02D45
:1042D0000B01B90190010C01CA01A0011124FF27B3
:1042E000591B99F0593F50F4503E68F11A16F040AE
:1042F000A22F232F342F4427585FF3CF46953795AD
:104300002795A795F0405395C9F77EF41F16BA0B71
:10431000620B730B840BBAF09150A1F0FF0FBB1F1F
:10432000661F771F881FC2F70EC0BA0F621F731F68
:10433000841F48F4879577956795B795F7959E3FC5
:1043400008F0B3CF9395880F08F09927EE0F979553
:1043500087950895D4D008F481E008950CD00AC15F
:1043600002D140F0F9D030F021F45F3F19F0EBC0FA
:10437000511134C1EEC00FD198F39923C9F35523DD
:10438000B1F3951B550BBB27AA2762177307840748
:1043900038F09F5F5F4F220F331F441FAA1FA9F3FE
:1043A00033D00E2E3AF0E0E830D091505040E695F0
:1043B000001CCAF729D0FE2F27D0660F771F881F51
:1043C000BB1F261737074807AB07B0E809F0BB0B40
:1043D000802DBF01FF2793585F4F2AF09E3F510564
:1043E00068F0B1C0FBC05F3FECF3983EDCF386950C
:1043F00077956795B795F7959F5FC9F7880F911DDA
:104400009695879597F90895E1E0660F771F881FC5
:10441000BB1F621773078407BA0720F0621B730B78
:10442000840BBA0BEE1F88F7E0950895BCD088F096
:104430009F5790F0B92F9927B751A0F0D1F0660F90
:10444000771F881F991F1AF0BA95C9F712C0B130AB
:1044500081F0C3D0B1E00895C0C0672F782F8827BE
:10446000B85F39F0B93FCCF3869577956795B395EA
:10447000D9F73EF490958095709561957F4F8F4F59
:104480009F4F0895E89409C097FB3EF4909580955E
:10449000709561957F4F8F4F9F4F9923A9F0F92F0A
:1044A00096E9BB279395F695879577956795B79588
:1044B000F111F8CFFAF4BB0F11F460FF1BC06F5F6E
:1044C0007F4F8F4F9F4F16C0882311F096E911C080
:1044D000772321F09EE8872F762F05C0662371F0A1
:1044E00096E8862F70E060E02AF09A95660F771FB5
:1044F000881FDAF7880F9695879597F90895990F91
:104500000008550FAA0BE0E8FEEF16161706E8079D
:10451000F907C0F012161306E407F50798F0621BBE
:10452000730B840B950B39F40A2661F0232B242B93
:10453000252B21F408950A2609F4A140A6958FEFB2
:10454000811D811D089597F99F6780E870E060E004
:1045500008959FEF80EC089500240A94161617061C
:1045600018060906089500240A9412161306140664
:1045700005060895092E0394000C11F4882352F0C7
:10458000BB0F40F4BF2B11F460FF04C06F5F7F4F7F
:104590008F4F9F4F089557FD9058440F551F59F066
:1045A0005F3F71F04795880F97FB991F61F09F3F20
:1045B00079F087950895121613061406551FF2CF49
:1045C0004695F1DF08C0161617061806991FF1CF99
:1045D00086957105610508940895E894BB276627C0
:1045E0007727CB0197F908958ADF08F48FEF0895B4
:1045F0000BD0C0CFB1DF28F0B6DF18F0952309F05B
:10460000A2CFA7CF1124EACFC6DFA0F3959FD1F3A5
:10461000950F50E0551F629FF001729FBB27F00D70
:10462000B11D639FAA27F00DB11DAA1F649F6627C5
:10463000B00DA11D661F829F2227B00DA11D621F14
:10464000739FB00DA11D621F839FA00D611D221FCE
:10465000749F3327A00D611D231F849F600D211DB2
:10466000822F762F6A2F11249F5750408AF0E1F055
:1046700088234AF0EE0FFF1FBB1F661F771F881F9E
:1046800091505040A9F79E3F510570F05CCFA6CFE6
:104690005F3FECF3983EDCF3869577956795B79589
:1046A000F795E7959F5FC1F7FE2B880F911D9695B3
:1046B000879597F90895FA01EE0FFF1F30962105AF
:1046C000310599F16115710561F48038BFE39B07ED
:1046D00049F168949038810561F08038BFEF9B07FD
:1046E00041F0992342F5FF3FE1053105210511F124
:1046F000E8940894E795D901AA2329F4AB2FBE2F9B
:10470000F85FD0F310C0FF5F70F4A695E0F7F739BB
:1047100050F019F0FF3A38F49F779F930CD00F9028
:1047200007FC905808953EF014CF60E070E080E8F8
:104730009FE308954FE79F775F934F933F932F93A6
:104740009ED02F913F914F915F9152DF05C019F498
:104750000EF0F9CE42CFFDCE26DFC8F39638C0F773
:1047600007F80F92E8942BE33AEA48EB5FE74EDF55
:104770000F920F920F924DB75EB70F92C0D0EAEC36
:10478000F0E016D04F915F91EF91FF91E595EE1F0C
:10479000FF1F49F0FE57E0684427EE0F441FFA95CB
:1047A000E1F74195550B32D00F9007FE26C00895D2
:1047B000DF93CF931F930F93FF92EF92DF927B01D2
:1047C0008C01689405C0DA2EEF011EDFFE01E8942B
:1047D000A5912591359145915591AEF3EF0167DD96
:1047E000FE019701A801DA9479F7DF90EF90FF902E
:1047F0000F911F91CF91DF9108959B01AC0160E073
:1048000070E080E89FE3AACD9ECEACC0CCDEE8F39A
:104810009923D9F3940F511DBBF39150504094F05C
:1048200059F0882332F0660F771F881F915050404F
:10483000C1F79E3F510544F7880F911D96958795C6
:1048400097F908955F3FACF0983E9CF0BB278695A2
:1048500077956795B79508F4B1609395C1F7BB0F4D
:1048600058F711F460FFE8CF6F5F7F4F8F4F9F4F76
:10487000E3CFB4CE0EF076C06CCE689464CE93DEF7
:10488000C8F39923D1F3C6F3DF93CF931F930F930C
:10489000FF92C92FDD2788232AF02197660F771F03
:1048A000881FDAF720E030E040E85FEB9FE38839CB
:1048B00020F0803E30F021968F77E8DCE2EFF0E0E8
:1048C00003C0E4DCEFE1F1E073DF8B01BE01EC013A
:1048D000FB2E6F5771097595771F880B990BD4DDE7
:1048E00028E132E741E35FE38FDEAF2D9801AE01AF
:1048F000FF900F911F91CF91DF91D9DC3BCEFA0150
:10490000DC01AA0FBB1F9B01AC01BF5728F4222773
:104910003327442750781FC0B75188F4AB2F0024A9
:10492000469537952795011CA395D2F3002069F091
:10493000220F331F441FB395DAF30DD0A6CC61309C
:104940007105A0E88A07B94630F49B01AC016627DF
:10495000772788279078309621F02083318342830F
:10496000538308959F3F31F0915020F487957795B8
:104970006795B795880F911D9695879597F9089536
:10498000DB018F939F930E943225BF91AF91A29F2D
:10499000800D911DA39F900DB29F900D112408953D
:1049A00097FB072E16F4009407D077FD09D00E94DC
:1049B0003D2507FC05D03EF4909581959F4F0895C5
:1049C000709561957F4F0895A1E21A2EAA1BBB1B1B
:1049D000FD010DC0AA1FBB1FEE1FFF1FA217B307CB
:1049E000E407F50720F0A21BB30BE40BF50B661FE1
:1049F000771F881F991F1A9469F7609570958095A5
:104A000090959B01AC01BD01CF010895052E97FB48
:104A10001EF400940E941D2557FD07D00E94E42437
:104A200007FC03D04EF40C941D255095409530950D
:104A300021953F4F4F4F5F4F08959095809570950A
:104A400061957F4F8F4F9F4F0895EE0FFF1F059089
:104A5000F491E02D09940E945125B7FF0895821B1F
:104A6000930B08950E945125A59F900DB49F900D22
:104A7000A49F800D911D11240895AA1BBB1B51E119
:104A800007C0AA1FBB1FA617B70710F0A61BB70BBE
:104A9000881F991F5A95A9F780959095BC01CD0163
:104AA0000895A29FB001B39FC001A39F700D811D07
:104AB0001124911DB29F700D811D1124911D089527
:104AC000CF93DF938230910510F482E090E0E09183
:104AD000B004F091B10420E030E0A0E0B0E0309705
:104AE00039F14081518148175907B8F048175907E3
:104AF00071F482819381109729F013969C938E9381
:104B000012972CC09093B1048093B00427C0211554
:104B1000310531F04217530718F0A901DB0101C03C
:104B2000EF019A01BD01DF010280F381E02DD7CFB3
:104B300021153105F9F0281B390B2430310580F49B
:104B40008A819B816115710521F0FB01938382832A
:104B500004C09093B1048093B004FE01329644C027
:104B6000FE01E20FF31F81939193225031093983A3
:104B700028833AC02091AE043091AF04232B41F436
:104B800020910201309103013093AF042093AE04D1
:104B900020910001309101012115310541F42DB71B
:104BA0003EB74091040150910501241B350BE09163
:104BB000AE04F091AF04E217F307A0F42E1B3F0BF5
:104BC0002817390778F0AC014E5F5F4F241735077F
:104BD00048F04E0F5F1F5093AF044093AE04819393
:104BE000919302C0E0E0F0E0CF01DF91CF91089512
:104BF000CF93DF93009709F487C0FC0132971382AB
:104C00001282C091B004D091B104209781F4208128
:104C10003181280F391F8091AE049091AF04821723
:104C2000930779F5F093AF04E093AE046DC0DE0115
:104C300020E030E0AE17BF0750F412964D915C9122
:104C400013979D014115510509F1DA01F3CFB383A3
:104C5000A28340815181840F951F8A179B0771F4AD
:104C60008D919C911197840F951F0296918380835B
:104C700012968D919C911397938382832115310510
:104C800029F4F093B104E093B0043EC0D901139627
:104C9000FC93EE9312974D915D91A40FB51FEA1707
:104CA000FB0779F480819181840F951F0296D901C9
:104CB00011969C938E938281938113969C938E93ED
:104CC0001297E0E0F0E08A819B81009719F0FE01E5
:104CD000EC01F9CFCE01029628813981820F931F12
:104CE0002091AE043091AF042817390769F430974A
:104CF00029F41092B1041092B00402C013821282FF
:104D0000D093AF04C093AE04DF91CF910895A0E09B
:104D1000B0E0EDE8F6E20C94EC27EC01CB01209733
:104D200019F40E946025B8C0FE01E60FF71F9E012E
:104D300022503109E217F30708F4ACC0D9010D91F4
:104D40001C91119706171707B8F00530110508F4E4
:104D50009FC0A801445051094617570708F498C04E
:104D600002501109061B170B019311936D937C934D
:104D7000CF010E94F8258CC05B01A01AB10A4E0138
:104D8000800E911EA091B004B091B104612C712CE1
:104D900060E070E0109709F449C0A815B905C9F59D
:104DA000ED90FC901197670142E0C40ED11CCA142B
:104DB000DB0478F147018A189B08640142E0C40EC5
:104DC000D11C1296BC9012971396AC91B5E0CB16FD
:104DD000D10440F0B282A38391828082D9018D9365
:104DE0009C9309C00E5F1F4F0E0D1F1DF90111830B
:104DF0000083EB2DFA2F6115710531F0DB0113965D
:104E0000FC93EE93129744C0F093B104E093B00486
:104E10003FC06D917C9111976616770608F43B01AF
:104E2000BD0112960D90BC91A02DB4CF6091AE043F
:104E30007091AF0468157905E9F468167906D0F425
:104E400040910001509101014115510541F44DB7C8
:104E50005EB76091040170910501461B570BE41782
:104E6000F507C0F4F093AF04E093AE04F901918329
:104E700080830EC00E9460257C01009759F0A80134
:104E8000BE010E945127CE010E94F825C70104C02F
:104E9000CE0102C080E090E0CDB7DEB7EEE00C942A
:104EA0000828FB01DC0102C001900D9241505040E6
:104EB000D8F70895FB01DC0101900D920020E1F785
:104EC00008952532310520F4223010F00C946C271F
:104ED000FA011082CA010895BB272A3051F49923A0
:104EE00042F4BDE290958095709561957F4F8F4F0C
:104EF0009F4F0C947C27BB27FA01A62F62177105E0
:104F000081059105330B30FB66F0AA27660F771FEA
:104F1000881F991FAA1FA21710F0A21B6395385073
:104F2000A9F7A05DAA3308F0A95DA19336F7B111E6
:104F3000B1931082CA010C94D8274532510520F450
:104F4000423010F00C94A827FB011082CB01089589
:104F5000BB27FB015527AA27880F991FAA1FA41753
:104F600010F0A41B83955051B9F7A05DAA3308F047
:104F7000A95DA193009779F7B111B1931192CB017B
:104F80000C94D827F999FECF92BD81BDF89A992744
:104F900080B50895262FF999FECF1FBA92BD81BD25
:104FA00020BD0FB6F894FA9AF99A0FBE01960895AB
:104FB000DC01FC01672F71917723E1F7329704C080
:104FC0007C916D9370836291AE17BF07C8F308950B
:104FD0002F923F924F925F926F927F928F929F9209
:104FE000AF92BF92CF92DF92EF92FF920F931F93F7
:104FF000CF93DF93CDB7DEB7CA1BDB0B0FB6F894A8
:10500000DEBF0FBECDBF09942A88398848885F84E7
:105010006E847D848C849B84AA84B984C884DF8058
:10502000EE80FD800C811B81AA81B981CE0FD11D3C
:105030000FB6F894DEBF0FBECDBFED010895F89412
:02504000FFCFA0
:105042000000B204800001000000510356035D031A
:10505200620342036A0356036E0376037A037D03F7
:10506200820384039B03A003A603E80301FA003230
:10507200192C011496C800D60664002003640004AB
:1050820000080008000400040004000400040006F4
:1050920001C400C400DC00C4000000F700060113D4
:1050A200031E1E1E1E1E1E1E1E1C1C1C1C1C1C1C47
:1050B2001C181818181818181810101010101010A2
:1050C200101F1F1F1F1F1F1F1F01FFFFFFFF00E1F8
:1050D20000000000000000C180810000003000528A
:1050E20065616420436F6E6669672E2E2E005365DC
:1050F2006E3A00204C3A004D696E3A00204D6178BC
:105102003A0052756E6E696E672E2E202020202086
:10511200202A0052756E6E696E672E2E0020483A64
:105122000020433A004C6F776572204D696E20561D
:10513200616C756521004C6F6767696E67207374D7
:105142006F707065642E0053657474696E677320A6
:1051520073617665642E2E004D696E2000204D61CC
:105162007820004175746F2041646A7573742E0053
:105172004765742072656164792E0041696D206112
:1051820074207461726765742E00436F6E6669677E
:10519200207361766564005761726E696E672121C2
:1051A2000053656E736F72204572726F722C20000D
:1051B20053657474696E6773004D494E3A20004D11
:1051C20041583A20004C65616420696E3A200047DC
:1051D2006574526561647954696D653A200043755E
:1051E2007276653A20005069746368207265763A77
:1051F2002000416C7761797320746F6E653A2000EC
:105202004175746F57696E646F773A20004C6F77FF
:10521200546F6E653A200048696768546F6E653A4C
:105222002000446973706C61793A2000417665729E
:105232006167653A200053616D706C65733A2000B6
:10524200506974636820537465703A20004C6F672C
:1052520067696E673A2000526573657420414C4C51
:105262003A200053617665642E2E2E2E2E2E005388
:1052720074617274696E672E2E2E004B65646F6BBB
:10528200200044697361626C6500456E61626C6501
:105292000046617374004D656469756D00536C6FEF
:1052A2007700536C6F77657374004C6F77004D61B4
:1052B20078696D616C004F6666004F6E00506C61DC
:1052C20079004E00590053696E6500547269616E2F
:1052D200676C6500537175617265004E6F6E650093
:1052E20056616C75650042617200202020202020EA
:1052F200202020202020202020200044656D6F00E7
:105302000000000000000000000000352E303200D6
:1053120000000000AF147D19000000006918B018E9
:105322009318A3187F1890180D0A006E616E006919
:085332006E66006F7666000054
:00000001FF
