:100000000C94DE080C9406090C9406090C943F1D10
:100010000C943F1D0C943F1D0C9406090C9406098A
:100020000C9406090C9406090C9406090C94FE1C09
:100030000C9406090C9406090C9406090C94060904
:100040000C949C1C0C9406090C9406090C9406094B
:100050000C9406090C9406090C9406090C940609E4
:100060000C9406090C94060958226F2286229D22C0
:10007000B422CB22E222F922102327233E23552348
:100080006C2383239A234E09B909270A950AF40A97
:10009000560BC50B130C990C4D0DB60D390EC70E32
:1000A000380F860FAE14B314B814BD14C214C7149D
:1000B000CC14D114D614DB14E014E514EA14EF14B4
:1000C000F41407634236B79BD8A71A39685618AE9E
:1000D000BAAB558C1D3CB7CC5763BD6DEDFD753E7D
:1000E000F6177231BF000000803F08000000BE928A
:1000F0002449123EABAAAA2ABECDCCCC4C3E00006D
:100100000080BEABAAAAAA3E00000000BF0000000B
:10011000803F0000000000084178D3BB4387D11323
:100120003D190E3CC3BD4282AD2B3E68EC8276BECB
:10013000D98FE1A93E4C80EFFFBE01C4FF7F3F0095
:1001400000000000AED580A83FD300408D142002EF
:10015000A1C8DA12817FD9F1DB40A4A6AF4401190E
:1001600080400000000D172B100000000000000070
:10017000000000000000000010383838FFFF383859
:100180003810000000000000000303000000000021
:10019000000000000000000000000000000000005F
:1001A00000000000000000000000000000000090BF
:1001B000783810000000000000000000000000007F
:1001C000000000000000103838383838383838104F
:1001D000000000000000000000000000000000001F
:1001E000000000000000000000000000000000000F
:1001F0000000000000000000000000000040E0E0FF
:100200004000000000000002060E0E0E0E0E0E064C
:1002100002000000103838383838383838100000FC
:100220000080C0E0E0E0E0E0E0C0800000FCFAF622
:100230000E0E0E0E0E0EF6FAFC00EFC78300000045
:1002400000000083C7EF007FBFDFE0E0E0E0E0E018
:10025000DFBF7F00000000000000000000F0F8FC9D
:100260000000000000000000000083C7EF00000055
:10027000000000000000001F3F7F000002060E0E7D
:100280000E0E0E0EF6FAFC00E0D0B83838383838CA
:10029000383B170F007FBFDFE0E0E0E0E0E0C08028
:1002A00000000002060E0E0E0E0E0EF6FAFC000006
:1002B0001038383838383838BBD7EF000080C0E005
:1002C000E0E0E0E0E0DFBF7F00FCF8F000000000CD
:1002D0000000F0F8FC000F173B383838383838BBCE
:1002E000D7EF000000000000000000001F3F7F006B
:1002F000FCFAF60E0E0E0E0E0E060200000F173B55
:10030000383838383838B8D0E0000080C0E0E0E055
:10031000E0E0E0DFBF7F00FCFAF60E0E0E0E0E0EE0
:1003200006020000EFD7BB383838383838B8D0E08C
:10033000007FBFDFE0E0E0E0E0E0DFBF7F00000241
:10034000060E0E0E0E0E0EF6FAFC00000000000067
:100350000000000083C7EF00000000000000000064
:10036000001F3F7F00FCFAF60E0E0E0E0E0EF6FA80
:10037000FC00EFD7BB383838383838BBD7EF007FB0
:10038000BFDFE0E0E0E0E0E0DFBF7F00FCFAF60E78
:100390000E0E0E0E0EF6FAFC000F173B38383838EA
:1003A0003838BBD7EF000080C0E0E0E0E0E0E0DFFD
:1003B000BF7F000000000080C0C08000000000007F
:1003C000000000000001010000000000000000002B
:1003D00000040E0E04000000000000030520600071
:1003E00000001700000300030A1F0A16131A09046D
:1003F0000A0A151A030000000E11110E000606006D
:10040000040E040C1C000404041000001804031F54
:10041000111F021F001D151715151F0F081E171598
:100420001D1F151D01011F1F151F17151F000A0095
:10043000001A00040A110A0A0A110A040015071F0B
:1004400015171F051F1F151B1F11111F110E1F153B
:10045000151F05011F111D1F041F111F1108100F6B
:100460001F041B1F10101F061F1C041C1F111F1F21
:1004700005070E191E1F051B17151D011F011F1053
:100480001F0F100F1F0C1F1B041B17141F19151310
:10049000001F11030418111F00060106101010019F
:1004A000010218141C1F141C1C14141C141F0C1AF9
:1004B00014041E0517151E1F041C001D0008100D36
:1004C0001F0C1A001F00180C181804181E121E1FEB
:1004D000050707051F1E0404121509021F021C1040
:1004E0001C0C100C0C180C140814161806041C1004
:1004F000040E11001F00110E040204021F1F1F0032
:100500000005072061000000000000005F000000FF
:1005100007000700147F147F14242A7F2A12231354
:1005200008646236495522500005030000001C2271
:1005300041000041221C00082A1C2A0808083E0825
:10054000080050300000080808080800606000003B
:1005500020100804023E5149453E00427F400042BF
:10056000615149462141454B311814127F102745EE
:100570004545393C4A494930017109050336494925
:100580004936064949291E00363600000056360015
:1005900000000814224114141414144122140800F9
:1005A0000201510906324979413E7E1111117E7FC7
:1005B000494949363E414141227F4141221C7F4900
:1005C0004949417F090901013E414151327F0808F3
:1005D000087F00417F41002040413F017F081422F5
:1005E000417F404040407F0204027F7F0408107F2B
:1005F0003E4141413E7F090909063E4151215E7F4E
:1006000009192946464949493101017F01013F4005
:1006100040403F1F2040201F7F2018207F63140888
:1006200014630304780403615149454300007F418A
:1006300041020408102041417F000004020102042D
:100640004040404040000102040020545454787F50
:10065000484444383844444420384444487F38545B
:10066000545418087E090102081454543C7F0804AD
:10067000047800447D40002040443D00007F102865
:100680004400417F40007C041804787C080404780E
:1006900038444444387C14141408081414187C7C1E
:1006A000080404084854545420043F4440203C406B
:1006B00040207C1C2040201C3C4030403C44281002
:1006C00028440C5050503C4464544C44000836417B
:1006D0000000007F0000004136080008082A1C08BE
:1006E000081C2A080800060909062C060A102060C2
:1006F00002020608070E0C020404050902040204A3
:100700000706070707070707070702020808080682
:100710000E0B0A090B09090A0C06080C09100C0A31
:10072000090A0C07080B0B0F0B0A0903040307083F
:10073000020707050706050708040309040C080655
:10074000070706050508080A080806050105070841
:10075000000000003EFE0C0D1E1E00001E1E0000CC
:10076000000000002020F02E20F02E20010F0101BB
:100770000F0101011C3E62FFC2860C060C081F0916
:100780000F073C7E427E3C00C0201884C240C080DF
:10079000000000080403000000070F080F07008096
:1007A000403CFEE2221EAC602000070F0C08080B44
:1007B00007060D0C04021E1E0000E0F80C02071FC5
:1007C0003040020CF8E040301F0728381E3828005F
:1007D0000000000040404040FC404040400000001D
:1007E00000070000000000004C3C00000000010178
:1007F000010100000C0C00C038060C030000F8FCDE
:10080000060206FCF803070C080C07030202FEFEB2
:10081000000008080F0F0808080C0686FE3C0008B8
:100820000C0E0D0C0C0208044666FEDC800C0C0855
:100830000808070380402018FCFE00030303030F91
:100840000F03203C363666E6C20C0C0C0808040385
:10085000E0F83C2466C28203070C080C07030C0670
:100860000606E61E02000008070000001CBE7262B9
:10087000E2FE9C070F0808080F07387CC68286FC3A
:10088000F808080C0407030060600C0C60604C3C26
:10089000804040402020201000010101020202049B
:1008A0002020202020202020010101010101010140
:1008B000102020204040408004020202010101007B
:1008C0001C1E02C27E3C00000C0D0000E0100884DB
:1008D000C2622222C2E20408F0000F1020478F8873
:1008E00084868F8844221108000080700C1E78E0F6
:1008F000800000080C0B090101010B0F0E08020219
:10090000FEFE424242E2BE1C08080F0F080808081B
:100910000F07F0FC0C020202040C1E010706080877
:10092000080804020202FEFE020202060CF8F008A9
:10093000080F0F0808080C0603010202FEFE4242DF
:10094000F2020E08080F0F080809080E0202FEFE48
:100950004242F2020E08080F0F0808010000F0FCE6
:100960000C020202848C9E80010706080808080F0A
:1009700007000202FEFE42404042FEFE020208085C
:100980000F0F080000080F0F08080202FEFE020207
:1009900008080F0F08080000000202FEFE02070F01
:1009A0000808080F07000202FEFE42E290100A0645
:1009B000020208080F0F0808010B0E0C08080202BB
:1009C000FEFE020200000008080F0F080808080ECB
:1009D0000202FE063EF8C00000C03806FEFE02021B
:1009E00008080F080801070E030008080F0F080881
:1009F0000202FE060E3870C282FE020208080F08CC
:100A000008000001030F0000F0FC0C020202020CBF
:100A1000FCF0010706080808080607010202FEFEAE
:100A20004242427E3C08080F0F0808000000F0FC1C
:100A30000C020202020CFCF0010706081838684696
:100A400047010202FEFE4242C2C27E3C000008088C
:100A50000F0F080800030F0C08081C3E72E2C28446
:100A60001E0F040808090F070E0202FEFE02020E06
:100A70000008080F0F0808000202FEFE0200000234
:100A8000FE02020000070F08080808070000020223
:100A90000E7EF28000C0320E0200000000010F0E38
:100AA00001000000020E7EF28000E21E7EF2800055
:100AB000E21E02000000010F0F000000010F0E01F6
:100AC00000000202061EFAE0A01A060202080C0C40
:100AD0000B00010B0F0C080802061E7AE280601A58
:100AE0000602000008080F0F08080000001E06C2DA
:100AF000E27A1E0602080C0F0B0808080C0FFEFE17
:100B0000027F7F40067880000000030C02FEFE405A
:100B10007F7F40300C020C304000000000000000DD
:100B200000000000000000004040404040404040C5
:100B30000204000040602020E0C000060F09090FF9
:100B40000F0802FEFE2020E0C0000F0708080F0774
:100B5000C0E0206060070F080804C0E02022FEFE0D
:100B600000070F08080F0F08C0E02020E0C0070FA3
:100B70000909090520FCFE2206080F0F0800C0E045
:100B80002020E0E0203D5B5A5A5B593002FEFE40D7
:100B900020E0C000080F0F08000F0F0820E6E60055
:100BA000080F0F0820E6E6407F3F02FEFE0080604F
:100BB000202000080F0F09030E0C080802FEFE009B
:100BC000080F0F0820E0E04020E0C04020E0C00017
:100BD000080F0F08000F0F08000F0F0820E0E0407B
:100BE00020E0C000080F0F08000F0F08C0E0202011
:100BF000E0C0070F08080F0720E0E02020E0C04019
:100C00007F7F48080F07C0E02020C0E000070F08E2
:100C1000487F7F4020E0E0402060080F0F08000080
:100C2000C0E0A020600C090B0F0620F0FC20200083
:100C3000070F080420E0E00020E0E00000070F08B4
:100C4000080F0F082060E0A000A060200000030F44
:100C50000C03000060E0A000A0E0A000A060000184
:100C60000F0E01010F0E01002020E0E08060202027
:100C700008080C030F0E080820E0E0A000A0602088
:100C80006060433F0E0100006020A0E0E020080EFD
:100C90000F0B080C807C3E0202003F7E4040FE7F2E
:100CA00002023E7C8040407E3F0080808000000049
:100CB0008001000001010101FE020202020202FEA7
:100CC0000F0808080808080F0000060E2060000042
:100CD00000000000000000000000000000FC000018
:100CE0000000000D000000001E001E0000000000BB
:100CF00000000020FC20FC2000010F010F01304803
:100D000088FC88300608081F08071824A478100CEF
:100D10000C020709090600B8C44438800708080512
:100D200006090000001E0000000000000000000096
:100D3000E01804020000030C102000020418E00078
:100D40000020100C0300002040F0402000020107AA
:100D50000102008080F08080000000070000000099
:100D6000000000000000241C0000008080808080C3
:100D70000000000000000000000000000000081C4F
:100D80000800000000E01806300C03000000F00826
:100D9000040408F0030408080403001008FC000021
:100DA0000008080F080818040404C438080C0A09CD
:100DB000080804044464548C06080808080700C0A6
:100DC0003008FC00030202020F027C24242424C405
:100DD000060808080807F088444444800708080803
:100DE0000807040404C4340C000C0300000018A419
:100DF0004444A4180708080808077884848444F841
:100E00000608080804030000207020000000040EFB
:100E100004000000606000000000120E000000806E
:100E2000402010080000010204082020202020207B
:100E300001010101010100081020408000080402A6
:100E40000100180404C424180000000D0000F0087C
:100E5000E41414F80304090A0A0BF088848488F067
:100E60000F000000000FFC444444A8100F080808BD
:100E70000403F80404040418070808080806FC041E
:100E8000040408F00F0808080403FC444444040464
:100E90000F0808080808FC44444404040F0000003C
:100EA0000000F8040484849807080808040FFC4034
:100EB000404040FC0F000000000F000404FC04044C
:100EC0000008080F080800000004FC0406080808D1
:100ED0000700FC40A01008040F000001020CFC00F9
:100EE000000000000F0808080808FC18606018FCE3
:100EF0000F000000000FFC30408000FC0F000000DD
:100F0000030FF804040404F8070808080807FC8421
:100F1000848484780F0000000000F804040404F8BE
:100F20000709090A1C27FC84848484780F000001C7
:100F3000020C38444484841806080808080704048E
:100F400004FC04040000000F0000FC00000000FC92
:100F50000708080808073CC00000C03C00010E0E4E
:100F6000010000FC000000FC0007080708070C3027
:100F7000C0C0300C0C030000030C001C6080601C1F
:100F80000000000F000004048464140C0C0B08081B
:100F900008080000FE02020200003F202020061880
:100FA000E0000000000000030C3000020202FE001E
:100FB000002020203F000804020204080000000076
:100FC0000000000000000000202020202020000061
:100FD000020408000000000000004020202020C083
:100FE00006090909090FFC40202020C00F04080849
:100FF0000807C02020202040070808080804C02057
:10100000202040FC07080808040FC020202020C032
:101010000709090909054040F844440800000F0089
:101020000000C0202020C02019262A2A2910FC40B8
:10103000202020C00F000000000F000020EC000066
:101040000008080F08080000000020EC001820200D
:10105000201FFC00804020000F0101020408000056
:1010600004FC00000008080F080800E020C020C0B1
:10107000000F0007000FE040202020C00F000000FC
:10108000000FC020202020C0070808080807E04003
:10109000202020C03F0408080807C020202040E08E
:1010A00007080808043FE040202020C00F0000008F
:1010B000000040A020202040040809090A04202044
:1010C000FC202000000007080804E000000000E009
:1010D00007080808040F00E0000000E00000030C0F
:1010E000030000E0008000E00007080708076080B8
:1010F000000080600C020101020CE000000000E032
:1011000013242424221F202020A06020080C0B0878
:1011100008080000807C02020000001F2020000060
:1011200000FE00000000003F00000002027C800082
:101130000020201F00000C020408100C000000001A
:101140000000FEFEFEFEFEFE3F3F3F3F3F3F00032E
:101150000C0F30333C3FC0C3CCCFF0F3FCFF00009A
:101160000000240027002A000000000025002800BD
:101170002B000000000023002600290004040404C2
:101180000404040402020202020203030303030331
:10119000010204081020408001020408102001020E
:1011A00004081020000000080002010000030407EA
:1011B00000000000000000004026362611241FBE5B
:1011C000CFEFD8E0DEBFCDBF14E0A0E0B1E0E4ECAB
:1011D000FBE502C005900D92AA3AB107D9F725E0C8
:1011E000AAEAB4E001C01D92A235B207E1F718E007
:1011F000CDEDD8E004C02197FE010E94C32BCC3D69
:10120000D107C9F70E949D1E0C94D52D0C940000A7
:10121000EF92FF920F931F93CF93DF93CDB7DEB77B
:1012200062970FB6F894DEBF0FBECDBF182F41E016
:1012300066E070E08EE190E00E942C14812F90E037
:101240008F30910508F0DFC6FC01ED5BFF4F0C9479
:10125000C32B809100018E3118F48F5F80930001C1
:101260000E94E913833009F451C00E94E9138430CD
:1012700019F480E00E9488140E94E913182F0E943C
:10128000E913813011F40E94EC166091000170E0C6
:1012900086E00E947910153009F4B5C64AE06091E5
:1012A0000001CE0107960E944E1B62E073E0CE0162
:1012B00001960E94951BBE01695F7F4FCE0101968A
:1012C0000E94DD1ABC01CE010D960E947B1B21E01D
:1012D00044E060E0CE010D960E94A710CE010D966D
:1012E0000E94F01ACE0101960E94F01ACE010796D4
:1012F0000E94F01A8091000161E090E00E940415C4
:101300000E94E913823009F0ABCFA3CF8091000196
:10131000863008F4AACF815080930001A6CF809137
:101320000B0190910C012091090130910A01245187
:1013300031098217930728F4059690930C01809346
:101340000B010E94E913833009F44EC00E94E91397
:10135000843019F481E00E9488140E94E913182F48
:101360000E94E913813011F40E94EC16153009F443
:101370004AC660910B0170910C014AE0CE010796BC
:101380000E94221B6BE073E0CE0101960E94951B28
:10139000BE01695F7F4FCE0101960E94DD1ABC013C
:1013A000CE010D960E947B1B21E044E060E0CE015F
:1013B0000D960E94A710CE010D960E94F01ACE0144
:1013C00001960E94F01ACE0107960E94F01A61E081
:1013D00080910B0190910C010E9404150E94E91369
:1013E000823009F0AECF9BCF80910B0190910C0120
:1013F0008B30910508F4AACF059790930C01809348
:101400000B01A4CF8091090190910A018E3D23E048
:10141000920728F4059690930A01809309010E948F
:10142000E913833009F44EC00E94E913843019F4A3
:1014300082E00E9488140E94E913182F0E94E91389
:10144000813011F40E94EC16153009F4DCC560916E
:10145000090170910A014AE0CE0107960E94221B01
:1014600069E173E0CE0101960E94951BBE01695FA0
:101470007F4FCE0101960E94DD1ABC01CE010D9670
:101480000E947B1B21E044E060E0CE010D960E94AB
:10149000A710CE010D960E94F01ACE0101960E946F
:1014A000F01ACE0107960E94F01A61E080910901BE
:1014B00090910A010E9404150E94E913823009F0FC
:1014C000AECFA0CF8091090190910A0120910B012C
:1014D00030910C012C5E3F4F2817390708F0A4CF3C
:1014E000059790930A01809309019ECF8091040192
:1014F0008E3B18F4865F809304010E94E9138330C9
:1015000009F44BC00E94E913843019F483E00E946F
:1015100088140E94E913182F0E94E913813011F4F6
:101520000E94EC16153009F46EC54AE06091040182
:10153000CE0107960E944E1B67E273E0CE01019632
:101540000E94951BBE01695F7F4FCE0101960E94EC
:10155000DD1ABC01CE010D960E947B1B21E044E008
:1015600060E0CE010D960E94A710CE010D960E945C
:10157000F01ACE0101960E94F01ACE0107960E9441
:10158000F01A8091040161E090E00E9404150E942D
:10159000E913823009F0B1CFA9CF809104018B30DB
:1015A00008F4B0CF8A5080930401ACCF8091E60458
:1015B000853018F48F5F8093E6040E94E91383302E
:1015C00009F44AC00E94E913843011F40E9488147F
:1015D0000E94E913182F0E94E913813011F40E9430
:1015E000EC16153009F40FC54AE06091E604CE010F
:1015F00007960E944E1B63E373E0CE0101960E94A2
:10160000951BBE01695F7F4FCE0101960E94DD1AD6
:10161000BC01CE010D960E947B1B21E044E060E0FE
:10162000CE010D960E94A710CE010D960E94F01AD1
:10163000CE0101960E94F01ACE0107960E94F01A80
:101640008091E60461E090E00E9404150E94E91395
:10165000823009F0B2CFAACF8091E604882309F442
:10166000B1CF81508093E604ADCF85E290E00E9437
:101670002C140E94E913823009F455C00E94E9132A
:10168000833009F458C00E94E913843019F485E0CE
:101690000E9488140E94E913182F0E94E9138130D8
:1016A00011F40E94EC16153009F4ADC4E091E70482
:1016B000F0E0EE0FFF1FEC5DFE4F60817181CE0107
:1016C00007960E94951B61E473E0CE0101960E948B
:1016D000951BBE01695F7F4FCE0101960E94DD1A06
:1016E000BC01CE010D960E947B1B21E044E060E02E
:1016F000CE010D960E94A710CE010D960E94F01A01
:10170000CE0101960E94F01ACE0107960E94F01AAF
:101710008091E70440E063E070E0882309F4A5CFFE
:1017200084E290E0A4CF8091E7048111A7CF81E00B
:101730008093E704A3CF8091E704882309F4A3CF23
:1017400081508093E7049FCF87E290E00E942C14A1
:101750000E94E913823009F455C00E94E9138330D6
:1017600009F458C00E94E913843019F486E00E94FD
:1017700088140E94E913182F0E94E913813011F494
:101780000E94EC16153009F43EC4E091E404F0E048
:10179000EE0FFF1FEC5DFE4F60817181CE01079659
:1017A0000E94951B61E573E0CE0101960E94951B96
:1017B000BE01695F7F4FCE0101960E94DD1ABC0118
:1017C000CE010D960E947B1B21E044E060E0CE013B
:1017D0000D960E94A710CE010D960E94F01ACE0120
:1017E00001960E94F01ACE0107960E94F01A80918D
:1017F000E40440E063E070E0882309F4A5CF86E2CA
:1018000090E0A4CF8091E4048111A7CF81E0809380
:10181000E404A3CF8091E404882309F4A3CF81508A
:101820008093E4049FCF60910501709106014AE026
:10183000CE0107960E94221B60E673E0CE0101965E
:101840000E94951BBE01695F7F4FCE0101960E94E9
:10185000DD1A6BE673E00E94C41ABC01CE010D963E
:101860000E947B1B21E044E060E0CE010D960E94C7
:10187000A710CE010D960E94F01ACE0101960E948B
:10188000F01ACE0107960E94F01A60E070E0809195
:101890000501909106010E9441136CE271E080E025
:1018A00090E00E94561C0E94E913833061F48091FD
:1018B0000501909106018333910528F0C29790931A
:1018C0000601809305010E94E913823091F4809112
:1018D00005019091060120910701309108012456DD
:1018E00031098217930728F4C296909306018093DA
:1018F00005010E94E913843019F487E00E948814DE
:101900000E94E913182F0E94E913813011F40E94FC
:10191000EC16153009F087CF40E064E070E081E418
:1019200090E00E942C1460E08091050190910601E6
:1019300086C060910701709108014AE0CE010796C8
:101940000E94221B6FE673E0CE0101960E94951B58
:10195000BE01695F7F4FCE0101960E94DD1A6BE6E2
:1019600073E00E94C41ABC01CE010D960E947B1B3D
:1019700021E044E060E0CE010D960E94A710CE0168
:101980000D960E94F01ACE0101960E94F01ACE0127
:1019900007960E94F01A60E070E080910701909134
:1019A00008010E9441136CE271E080E090E00E9427
:1019B000561C0E94E913833091F4809107019091A5
:1019C000080120910501309106012C593F4F28173D
:1019D000390728F4C29790930801809307010E9469
:1019E000E913823069F480910701909108018832EF
:1019F00023E2920728F4C29690930801809307018E
:101A00000E94E913843019F488E00E9488140E942F
:101A1000E913182F0E94E913813011F40E94EC168B
:101A2000153009F086CF40E064E070E082E490E099
:101A30000E942C1460E080910701909108010E949F
:101A4000041540E062E070E083E490E00E942C1412
:101A5000DAC280910101909102018333910528F04F
:101A60000A9790930201809301010E94E91382304A
:101A700009F44EC00E94E913843019F489E00E94F1
:101A800088140E94E913182F0E94E913813011F481
:101A90000E94EC16153009F4B6C2609101017091F4
:101AA00002014AE0CE0107960E94221B6AE773E01A
:101AB000CE0101960E94951BBE01695F7F4FCE014A
:101AC00001960E94DD1ABC01CE010D960E947B1B7F
:101AD00021E044E060E0CE010D960E94A710CE0107
:101AE0000D960E94F01ACE0101960E94F01ACE01C6
:101AF00007960E94F01A61E0809101019091020125
:101B00000E9404150E94E913833009F0AECFA1CFE3
:101B100080910101909102018C3221E0920708F03E
:101B2000A9CF0A969093020180930101A3CF8091DF
:101B30000301833018F08150809303010E94E91360
:101B4000823009F44FC00E94E913843019F48AE00E
:101B50000E9488140E94E913182F0E94E913813013
:101B600011F40E94EC16153009F44DC24AE0609160
:101B70000301CE0107960E944E1B68E873E0CE0178
:101B800001960E94951BBE01695F7F4FCE010196B1
:101B90000E94DD1A60E973E00E94C41ABC01CE0104
:101BA0000D960E947B1B21E044E060E0CE010D9683
:101BB0000E94A710CE010D960E94F01ACE01019648
:101BC0000E94F01ACE0107960E94F01A809103013C
:101BD00061E090E00E9404150E94E913833009F04F
:101BE000ADCFA5CF80910301843108F0ACCF8F5FDA
:101BF00080930301A8CF80910D01813039F440E03A
:101C000064E070E084E390E00E942C1480910D0168
:101C1000823039F440E064E070E08FE390E00E94AD
:101C20002C1480910D01833039F440E064E070E0C1
:101C300086E390E00E942C140E94E913833009F49B
:101C400056C00E94E913823009F45AC00E94E91379
:101C5000843019F48BE00E9488140E94E913182F35
:101C60000E94E913813011F40E94EC16153009F43A
:101C7000CAC1E0910D01F0E0EE0FFF1FE45EFE4FE0
:101C800060817181CE0107960E94951B66E973E021
:101C9000CE0101960E94951BBE01695F7F4FCE0168
:101CA00001960E94DD1ABC01CE010D960E947B1B9D
:101CB00021E044E060E0CE010D960E94A710CE0125
:101CC0000D960E94F01ACE0101960E94F01ACE01E4
:101CD00007960E94F01A80910D0181118CCF40E08F
:101CE00064E070E08DE090E00E942C1484CF80913D
:101CF0000D01882309F4A5CF815080930D01A1CF58
:101D000080910D01833008F0A1CF8F5F80930D018A
:101D10009DCF8091E104813039F440E064E070E0CF
:101D20008FE390E00E942C148091E104823039F41A
:101D300040E064E070E08EE390E00E942C1480911B
:101D4000E104833039F440E064E070E080E490E046
:101D50000E942C140E94E913833009F456C00E949B
:101D6000E913823009F45AC00E94E913843019F44F
:101D70008CE00E9488140E94E913182F0E94E91336
:101D8000813011F40E94EC16153009F43CC1E09149
:101D9000E104F0E0EE0FFF1FEC5EFE4F6081718109
:101DA000CE0107960E94951B62EA73E0CE01019670
:101DB0000E94951BBE01695F7F4FCE0101960E9474
:101DC000DD1ABC01CE010D960E947B1B21E044E090
:101DD00060E0CE010D960E94A710CE010D960E94E4
:101DE000F01ACE0101960E94F01ACE0107960E94C9
:101DF000F01A8091E10481118CCF40E064E070E042
:101E00008CE390E00E942C1484CF8091E10488231D
:101E100009F4A5CF81508093E104A1CF8091E10422
:101E2000833008F0A1CF8F5F8093E1049DCF86E4DB
:101E300090E00E942C140E94E913823009F455C0EE
:101E40000E94E913833009F458C00E94E9138430DA
:101E500019F48DE00E9488140E94E913182F0E9443
:101E6000E913813011F40E94EC16153009F4CBC04F
:101E7000E091E504F0E0EE0FFF1FEC5DFE4F6081A6
:101E80007181CE0107960E94951B6AEA73E0CE012C
:101E900001960E94951BBE01695F7F4FCE0101969E
:101EA0000E94DD1ABC01CE010D960E947B1B21E031
:101EB00044E060E0CE010D960E94A710CE010D9681
:101EC0000E94F01ACE0101960E94F01ACE010796E8
:101ED0000E94F01A8091E50440E064E070E08823FD
:101EE00009F4A5CF85E490E0A4CF8091E5048111A9
:101EF000A7CF81E08093E504A3CF8091E5048823F8
:101F000009F4A3CF81508093E5049FCF10E0E12E28
:101F1000F12CF701EE0FFF1FEC5DFE4F6081718128
:101F2000CE0107960E94951B67EB73E0CE010196E8
:101F30000E94951BBE01695F7F4FCE0101960E94F2
:101F4000DD1ABC01CE010D960E947B1B21E044E00E
:101F500060E0CE010D960E94A710CE010D960E9462
:101F6000F01ACE0101960E94F01ACE0107960E9447
:101F7000F01A40E064E070E0112319F08AE290E08A
:101F800002C089E290E00E942C140E94E913823082
:101F900019F4EF2809F411E00E94E913833009F4E1
:101FA00010E00E94E913843019F48EE00E94881436
:101FB0000E94E913082F0E94E913813009F51123CB
:101FC000F9F067EC73E0CE0101960E94951B21E0C9
:101FD00044E060E0CE0101960E94A710CE01019678
:101FE0000E94F01A40E064E070E088E290E00E9415
:101FF0002C1460E080E090E00E945B280C940000CC
:10200000053009F084CF62960FB6F894DEBF0FBE9C
:10201000CDBFDF91CF911F910F91FF90EF90089569
:10202000FC016093BC008091BC0087FFFCCF9091C5
:10203000B900987F90830895CF92DF92EF92FF923C
:102040000F931F93CF93DF93EC01C62ED42E8F8571
:10205000882351F0411108C084E98093BC0080912D
:10206000BC0084FDFCCF1F86EF848E01035F1F4FF1
:10207000E11014C0FE8464EAC8010E9410108D852E
:10208000883011F1803101F1DD2011F080E4E82E7B
:10209000E092BB0064E8C8010E941010C092BB002F
:1020A00064E8C8010E94101082E0D81204C08F8535
:1020B0008F5F8F8711C084E98093BC008091BC0042
:1020C00084FDFCCF1F8608C0FF0CF092BB0064E8C3
:1020D000C8010E941010D8CFDF91CF911F910F91AE
:1020E000FF90EF90DF90CF900895089580E090E00A
:1020F00008951F93CF93DF93182FEB0164E170E0F5
:1021000080E090E00E94561C8EE78093F6048FEFEB
:102110008093F70486E08093F8041093F9041092FA
:10212000FA04D093FB04C093FC048FEE8093FD046B
:10213000C6EFD4E01C2F185F69918EEA94E00E94EC
:102140002E181C13F9CFDF91CF911F9108950F9393
:102150001F93CF93DF931F92CDB7DEB78C01213051
:1021600019F488EC9CE013C0223019F48AEE96E052
:102170000EC0233019F48FEF94E009C0243019F415
:1021800089ED93E004C0253031F483E691E090932B
:10219000D9048093D8048DEC94E049830E94F81D03
:1021A0004981642F8DEC94E00E94EC1D8DEC94E04D
:1021B0000E944F1EF80144815581608171818DEC30
:1021C00094E00F90DF91CF911F910F910C949C1789
:1021D000CF93DF93CDB7DEB762970FB6F894DEBF2B
:1021E0000FBECDBF8DEC94E00E947E1E68E271E0D0
:1021F000CE0107960E94951B68E074E0CE0101961F
:102200000E94951BBE01695F7F4FCE0101960E941F
:10221000DD1A6FE074E00E94C41ABC01CE010D9675
:102220000E947B1B22E040E060E0CE010D960E9400
:10223000A710CE010D960E94F01ACE0101960E94C1
:10224000F01ACE0107960E94F01A62960FB6F89423
:10225000DEBF0FBECDBFDF91CF910895CF92DF9249
:10226000EF92FF920F931F93CF93DF93CDB7DEB71B
:102270006E970FB6F894DEBF0FBECDBF8091E80415
:10228000882309F4A3C06091E9047091EA044AE04C
:10229000CE0101960E94221B25E043E06BE2CE01B5
:1022A00001960E94A710CE0101960E94F01A40915B
:1022B000DD045091DE046091DF047091E0042AE0B7
:1022C000CE0143960E94F51AC0900B01D0900C01EC
:1022D000E12CF12C2091E9043091EA04C901A0E03D
:1022E000B0E09C01AD012C193D094E095F09A6EF34
:1022F000BFEF0E9496282091090130910A018901BF
:1023000020E030E0A90198012C193D094E095F0930
:102310000E946928BA01A901465F5F4F6F4F7F4F46
:102320002AE0CE010D960E94F51A6091E2047091A8
:10233000E3044AE0CE0107960E94221B6EE174E09E
:10234000CE0101960E94951BBE01695F7F4FCE01B1
:1023500001960E94DD1A61E274E00E94C41ABE0177
:10236000635F7F4F0E94DD1A67E274E00E94C41A27
:10237000BE016D5E7F4F0E94DD1ABC01CE01499601
:102380000E947B1B23E047E060E0CE0149960E945B
:10239000A710CE0149960E94F01ACE0101960E9424
:1023A000F01ACE0107960E94F01ACE010D960E94F7
:1023B000F01ACE0143960E94F01A1092DD0410929A
:1023C000DE041092DF041092E0044CC10E94E81079
:1023D00060910701709108014AE0CE010D960E94BC
:1023E000221B60910501709106014AE0CE0107961B
:1023F0000E94221B6DE274E0CE0101960E94951BA3
:10240000BE01695F7F4FCE0101960E94DD1A67E829
:1024100074E00E94C41ABE01635F7F4F0E94DD1A00
:10242000BC01CE0143960E947B1B23E042E060E0AA
:10243000CE0143960E94A710CE0143960E94F01A47
:10244000CE0101960E94F01ACE0107960E94F01A62
:10245000CE010D960E94F01A6091090170910A0157
:102460004AE0CE010D960E94221B60910B017091F3
:102470000C014AE0CE0107960E94221B6AE374E039
:10248000CE0101960E94951BBE01695F7F4FCE0170
:1024900001960E94DD1A67E874E00E94C41ABE012A
:1024A000635F7F4F0E94DD1ABC01CE0143960E94FC
:1024B0007B1B23E043E060E0CE0143960E94A7101F
:1024C000CE0143960E94F01ACE0101960E94F01AA6
:1024D000CE0107960E94F01ACE010D960E94F01AC6
:1024E0004AE06091E604CE0107960E944E1B67E425
:1024F00074E0CE0101960E94951BBE01695F7F4F7B
:10250000CE0101960E94DD1ABC01CE010D960E94FB
:102510007B1B23E044E060E0CE010D960E94A710F3
:10252000CE010D960E94F01ACE0101960E94F01A7B
:10253000CE0107960E94F01AE0910D01F0E0EE0F37
:10254000FF1FE45EFE4F60817181CE0107960E94FD
:10255000951B64E574E0CE0101960E94951BBE01B7
:10256000695F7F4FCE0101960E94DD1ABC01CE014A
:102570000D960E947B1B23E045E060E0CE010D96A6
:102580000E94A710CE010D960E94F01ACE0101966E
:102590000E94F01ACE0107960E94F01AE091E10421
:1025A000F0E0EE0FFF1FEC5EFE4F60817181CE0107
:1025B00007960E94951B61E674E0CE0101960E9489
:1025C000951BBE01695F7F4FCE0101960E94DD1A07
:1025D000BC01CE010D960E947B1B23E046E060E02B
:1025E000CE010D960E94A710CE010D960E94F01A02
:1025F000CE0101960E94F01ACE0107960E94F01AB1
:10260000E091E504F0E0EE0FFF1FEC5DFE4F60810E
:102610007181CE0107960E94951B6EE674E0CE0193
:1026200001960E94951BBE01695F7F4FCE01019606
:102630000E94DD1ABC01CE010D960E947B1B23E097
:1026400047E060E0CE010D960E94A710CE010D96E6
:102650000E94F01ACE0101960E94F01ACE01079650
:102660000E94F01A6E960FB6F894DEBF0FBECDBF73
:10267000DF91CF911F910F91FF90EF90DF90CF905E
:1026800008958F929F92AF92BF92CF92DF92EF9276
:10269000FF92CF93009759F4CF91FF90EF90DF9086
:1026A000CF90BF90AF909F908F900C949A1E4B014B
:1026B000A12CB12C9C0140E050E060E079E08DE37A
:1026C00090E00E94D22869017A0181E0C81AD108FD
:1026D000E108F108C114D104E1E0EE06F10458F07C
:1026E000CD2CDE2CEF2CFF24F1E0CF1AD108E1082D
:1026F000F108C4E001C0C1E081149104A104B10457
:1027000079F00E94901C860E971EA81EB91E80921A
:10271000010590920205A0920305B09204050BC03A
:102720008FEF9FEFDC018093010590930205A0934A
:102730000305B09304058091FE04811122C0EAE9EB
:10274000F1E124912093FE0486E891E1FC013491AB
:10275000E32FF0E0EE0FFF1FE859FE4E4591549134
:10276000509300054093FF04FC018491E82FF0E0B2
:10277000EE0FFF1FE25AFE4EA591B491EC912E2B65
:102780002C93D0928700C092860080918400909113
:102790008500A0E0B0E0C816D906EA06FB0620F4E2
:1027A000D0928500C0928400C061C093810080E116
:1027B0008093800080916F00826080936F00CF9142
:1027C000FF90EF90DF90CF90BF90AF909F908F9051
:1027D000089582E00E94AA1B892B41F464E170E015
:1027E00088EE93E00E94411381E0089583E00E9407
:1027F000AA1B892B41F464E170E088EE93E00E940B
:10280000411383E0089584E00E94AA1B892B41F4C0
:1028100064E170E088EE93E00E94411382E0089545
:1028200086E00E94AA1B892B41F464E170E088EEE7
:1028300093E00E94411384E0089585E00E94AA1B62
:10284000892B41F464E170E088EE93E00E9441132B
:1028500085E0089580E00895CF92DF92EF92FF9295
:102860000F931F93CF93DF9300D000D000D0CDB74C
:10287000DEB78C016B01442389F06BE774E0CE0175
:1028800001960E94951B21E044E060E0CE01019694
:102890000E94A710CE0101960E94F01AB8017E5F37
:1028A0008FE00E9479100E94E913882339F064E6D2
:1028B00070E080E090E00E94561CF5CF80E293E04B
:1028C000C89E7001C99EF00CD89EF00C112400E047
:1028D00010E00E151F0569F00E94E913811109C06F
:1028E00061E070E080E090E00E94561C0F5F1F4F97
:1028F000F0CF26960FB6F894DEBF0FBECDBFDF91A6
:10290000CF911F910F91FF90EF90DF90CF9008959E
:102910001F93CF93DF9300D000D000D0CDB7DEB7A8
:10292000182F6AE874E0CE0101960E94951B21E001
:1029300044E060E0CE0101960E94A710CE0101960E
:102940000E94F01A812F90E08F30910508F052C05C
:10295000FC01EE5AFF4F40E00C94C32B68E070E09E
:102960008FE790E045C06DE070E08BE790E040C0FD
:102970006DE070E08AE790E03BC06AE070E08DE7D0
:1029800090E036C06BE070E08EE790E031C069E027
:1029900070E08CE790E02CC068E070E08FE890E099
:1029A00027C067E070E089E790E022C067E070E050
:1029B00088E790E01DC06BE070E087E790E018C00A
:1029C0006AE070E081EA90E013C06EE070E08BEAAC
:1029D00090E00EC068E070E08FE990E009C06CE024
:1029E00070E088EA90E004C06AE070E086E790E07A
:1029F0000E942C1426960FB6F894DEBF0FBECDBFF2
:102A0000DF91CF911F910895CF93DF93EC0166235F
:102A100039F040E062E070E083E290E00E942C1424
:102A2000C83E83E0D80760F0CE0168EE73E00E94F4
:102A30009B2BCB0140E061E070E00E942C1403C0AE
:102A4000C436D10580F0CE0164E670E00E949B2B75
:102A5000CB016AE070E00E949B2B40E061E070E0F7
:102A60000E942C1403C0CA30D10578F02AE030E06F
:102A7000CE01B9010E949B2BCB01B9010E949B2B77
:102A800040E061E070E00E942C14CE016AE070E04A
:102A90000E949B2B40E063E070E0DF91CF910C94AB
:102AA0002C140F931F93CF93DF93D82F8B01C0E08B
:102AB000CD1769F068EC70E0C8010E94411360E92D
:102AC00071E080E090E00E94561CCF5FF1CFDF9173
:102AD000CF911F910F9108958F929F92AF92BF92C5
:102AE000CF92DF92EF92FF920F931F93CF93DF93DA
:102AF00020910D0121110FC081E1DF91CF911F9134
:102B00000F91FF90EF90DF90CF90BF90AF909F908C
:102B10008F900C943F1CEC0181E10E943F1C8C01C2
:102B2000CE01880F991FC80FD91F6BE070E06C1B96
:102B30007D0B80E090E00E94342720E030E040E20E
:102B400051E40E9470296B017C01B80180E090E0A3
:102B50000E9434279B01AC01C701B6010E94952752
:102B60004B015C01A701960160E070E080E89FE303
:102B70000E9403296B017C018091F4049091F5047B
:102B8000BC0180E090E00E9434279B01AC01C701AA
:102B9000B6010E9495279B01AC01C501B4010E94BA
:102BA00004290E94E2297093F5046093F404CB0198
:102BB000DF91CF911F910F91FF90EF90DF90CF9019
:102BC000BF90AF909F908F9008952F923F924F9219
:102BD0005F926F927F928F929F92AF92BF92CF92AD
:102BE000DF92EF92FF920F931F93CF93DF93CDB7B6
:102BF000DEB72A970FB6F894DEBF0FBECDBF362ED4
:102C0000272E89839A832B833C834D835E83270100
:102C100038019F8C88A019A10AA12BA13CA14DA12C
:102C20005EA160E070E0CB010E9403292DEC3CEC3A
:102C30004CEC5DEB0E9495279B01AC0160E070E0DD
:102C400080E291E40E94162A6F83788789879A87A9
:102C5000232D322D49815A81692D782D812F902F76
:102C60000E942F2787FF03C0410119810A812B8110
:102C70003C814D815E81692D782D812F902F0E949E
:102C8000112A181624F49B808C801D810E81A301CB
:102C90009201C601B5010E94112A1816ACF4A301D5
:102CA0009201C601B5010E9403296B017C012B81B1
:102CB0003C814D815E81632D722D89819A810E94B4
:102CC000112A1816CCF414C0A6019501C301B20153
:102CD0000E9403296B017C012B813C814D815E8127
:102CE000632D722D89819A810E94112A18167CF514
:102CF00060E070E0CB0157C0232D322D49815A810D
:102D0000692D782D812F902F0E9403294B015C01A2
:102D1000232D322D49815A816B817C818D819E8149
:102D20000E9403299B01AC01C501B4010E947029D6
:102D30002F81388549855A850E94162AA701960158
:102D40000E949527A30192010E9404292CC0232DE3
:102D5000322D49815A81692D782D812F902F0E9423
:102D600003294B015C01232D322D49815A816B814E
:102D70007C818D819E810E9403299B01AC01C5014C
:102D8000B4010E9470292F81388549855A850E9497
:102D9000162AA70196010E9495279B01AC01C30149
:102DA000B2010E9403292A960FB6F894DEBF0FBE27
:102DB000CDBFDF91CF911F910F91FF90EF90DF90EA
:102DC000CF90BF90AF909F908F907F906F905F90CB
:102DD0004F903F902F900895EF92FF920F931F9383
:102DE000CF93DF93CDB7DEB76A970FB6F894DEBF07
:102DF0000FBECDBF61E080E090E00E945B28809133
:102E00000B0190910C019A83898380910901909123
:102E10000A019C838B83809104018D838091E60459
:102E20008E838091E7048F838091E404888780916A
:102E30000101909102019A878987809103018B8714
:102E400080910501909106019D878C8780910701F3
:102E5000909108019F878E8780910001888B8091D7
:102E60000D01898B8091E1048A8B8091E5048B8B25
:102E7000CE0101967C0101E010E0F70161917F0134
:102E8000C8016A8F0E9453286A8D681719F0C8011B
:102E90000E945B280F5F1F4F0431110571F769E92C
:102EA00074E0CE0144960E94951B21E044E060E06E
:102EB000CE0144960E94A710CE0144960E94F01ABB
:102EC00040E063E070E082E290E00E942C146A9699
:102ED0000FB6F894DEBF0FBECDBFDF91CF911F912B
:102EE0000F91FF90EF90089520910B0130910C010C
:102EF000280F391F30930C0120930B0120910901F9
:102F000030910A01280F391F30930A0120930901DB
:102F100040E063E070E097FF03C081E390E002C00F
:102F200082E390E00E942C140E94E8100E94EC16AC
:102F30001092E8040C942E11CF92DF92EF92FF9240
:102F40000F931F93CF93DF936C017A018B01C0E045
:102F5000D0E0CE15DF0589F0D8016D918D01D60145
:102F6000ED91FC910190F081E02DC6010995892B2E
:102F700011F47E0102C02196ECCFC701DF91CF9101
:102F80001F910F91FF90EF90DF90CF9008958330C5
:102F900081F028F4813099F08230A1F008958730D3
:102FA000A9F08830B9F08430D1F4809180008F7D11
:102FB00003C0809180008F7780938000089584B54E
:102FC0008F7702C084B58F7D84BD08958091B00055
:102FD0008F7703C08091B0008F7D8093B0000895FB
:102FE0003FB7F89480914A0590914B05A0914C050C
:102FF000B0914D0526B5A89B05C02F3F19F001964D
:10300000A11DB11D3FBFBA2FA92F982F8827820F6E
:10301000911DA11DB11DBC01CD0142E0660F771FBE
:10302000881F991F4A95D1F708952091AC043091DB
:10303000AD042817390771F49091AA048091AB046C
:10304000981741F0E091AA04F0E0EB5FFA4F80811D
:1030500090E008958FEF9FEF089508951F93CF9309
:10306000DF93DC015C962D913C915D972115310534
:1030700039F481E090E013969C938E9312973DC0B3
:103080005196ED91FC91529750969C915097892FB3
:1030900080951FB75E964C915E9741FB772770F93C
:1030A00041FD6095F8944081772311F0492B01C0D0
:1030B00048234083E9012197F1F748E0508160FF00
:1030C00002C0592B01C058235083E9012197F1F721
:1030D0006695415099F7772321F090818923808369
:1030E00003C08081982B90831FBF5C968D919C912B
:1030F0005D970197F1F721E030E0C901DF91CF91B1
:103100001F9108952091AC043091AD042817390720
:1031100071F48091AB042091AA0490E0805C9F4FF1
:10312000821B910960E470E00E94AF2B089580E05B
:1031300090E008952091AC043091AD042817390730
:10314000B9F49091AA048091AB04981789F0E091AA
:10315000AA04F0E0EB5FFA4F80812091AA0430E0EE
:103160002F5F3F4F2F7333272093AA0490E00895D9
:103170008FEF9FEF08950E94C02D0F931F93CF9361
:10318000DF93EC0188819981009729F02A813B81A6
:103190002617370788F48B016F5F7F4F0E94F62C4C
:1031A000009761F0998388831B830A832C813D817A
:1031B000232B11F4FC01108281E001C080E0DF913B
:1031C000CF911F910F910895EF92FF920F931F934C
:1031D000CF93DF93FC01248135816115710511F4D2
:1031E00080E019C041155105A9F07B01EC018A016D
:1031F000020F131FB8010E94BD18882389F328818C
:1032000039818C819D81B701820F931F0E94CE2D41
:103210001D830C8381E0DF91CF911F910F91FF906F
:10322000EF900895CF93DF93EC0188819981009707
:1032300011F00E945E2C198218821D821C821B8252
:103240001A82DF91CF910895EF92FF920F931F930F
:10325000CF93DF93EC017B018A01BA010E94BD1874
:10326000811104C0CE010E94121907C01D830C8376
:10327000B701888199810E94CE2DCE01DF91CF9137
:103280001F910F91FF90EF900895CF93DF93EC0182
:103290006115710559F0FB0101900020E9F73197A4
:1032A000AF01461B570B0E94241902C00E9412193D
:1032B000CE01DF91CF9108952F923F924F925F926E
:1032C0006F927F928F929F92AF92BF92CF92DF9236
:1032D000EF92FF920F931F93CF93DF93CDB7DEB79B
:1032E00027970FB6F894DEBF0FBECDBFFC01038554
:1032F00014850115110509F429C19F838E83F801F6
:10330000B49131964491319654903196A491EA2E1D
:10331000F12CF7E0EF0EF11C93E0F594E7949A9509
:10332000E1F7EA82F801349674913196E4916717D7
:1033300058F0862F90E02E2F30E0F901E70FF11DB5
:103340008E179F070CF445C06D3031F460E08E811C
:103350009F810E94F81DFDC06A3009F0F7C0EE8120
:10336000FF81818515818E9D100D112487818695A1
:1033700086958695181730F08285882319F082E0AB
:10338000828710E060E08E819F810E94F81D612F8E
:103390008E819F810E94EC1DEE81FF8182858230AB
:1033A00008F4D7C0CF010E944F1EEE81FF818185B6
:1033B000612F8E9D600D1124660F660F660F878149
:1033C000861708F460E060648E819F810E94E41D8E
:1033D000C0C050E05B2BC8010696671BEE81FF81E1
:1033E000F185F9834230510588F4452B09F01982A3
:1033F0005E9C90015F9C300D1124629F8001639F51
:10340000100D1124080F191F412C24C0EA2FE7705A
:1034100021F048E0442E4E1A01C0412CA82FFC0197
:1034200040E050E07E2F7A1B761728F47491470F06
:10343000511D3196F7CFFC01E60FF11D54904E9DC2
:1034400080014F9D100D5E9D100D1124020F131F62
:10345000080F191FEE81FF81F481FB83EE81FF814C
:10346000F581FC83852C912CCC24C394D12CA12CE8
:10347000B12C22242A942C0C7A81271608F060C0E3
:10348000312CEE81FF818185381608F053C0211060
:1034900002C0332069F0EE81FF81758073946B81E7
:1034A000CF010E94F81D672D8E819F810E94EC1D27
:1034B000612C712C651488F5F301EA0DFB1DE00FFA
:1034C000F11F2491442061F0CE14DF0449F4E22F6F
:1034D000F0E0042C02C0F595E7950A94E2F72E2F50
:1034E000EE81FF818185823079F4E22F3110E295FF
:1034F000EF70F0E0E25BFE4E2491622F8E819F819F
:103500002D830E94CF1D2D81622F8E819F810E946D
:10351000CF1DFFEF6F1A7F0ACDCF712C79817716FF
:1035200039F060E08E819F810E94CF1D7394F6CFA9
:103530003394A7CFA80CB91CFFEFCF1ADF0A99CF9D
:103540006C818E819F810E94EC1D03C080E090E021
:1035500002C081E090E027960FB6F894DEBF0FBE60
:10356000CDBFDF91CF911F910F91FF90EF90DF9032
:10357000CF90BF90AF909F908F907F906F905F9013
:103580004F903F902F900895CF93DF93EC016115FA
:10359000710561F0FB0101900020E9F73197AF015F
:1035A000461B570B0E94E418811103C0CE010E94F4
:1035B0001219CE01DF91CF910895CF93DF93EC01E3
:1035C000FB0144815581608171810E94E418811161
:1035D00003C0CE010E941219CE01DF91CF91089550
:1035E000FC01808191810C945E2C0F931F93CF93EB
:1035F000DF93CDB7DEB7A2970FB6F894DEBF0FBE4C
:10360000CDBF8C01CB01BA01F80111821082138267
:1036100012821582148230E0AE014F5F5F4F0E942C
:10362000BE26BE016F5F7F4FC8010E944519A2965A
:103630000FB6F894DEBF0FBECDBFDF91CF911F91C3
:103640000F9108950F931F93CF93DF93CDB7DEB7FC
:1036500061970FB6F894DEBF0FBECDBF8C01CB01D2
:10366000F80111821082138212821582148250E0B6
:10367000BE016F5F7F4F0E94FA26BE016F5F7F4FD2
:10368000C8010E94451961960FB6F894DEBF0FBEBF
:10369000CDBFDF91CF911F910F9108950F931F938D
:1036A000CF93DF93CDB7DEB729970FB6F894DEBF7F
:1036B0000FBECDBF8C01862FF801118210821382BC
:1036C00012821582148250E0BE016F5F7F4F90E03E
:1036D0000E94FA26BE016F5F7F4FC8010E94451904
:1036E00029960FB6F894DEBF0FBECDBFDF91CF9104
:1036F0001F910F910895FB01DC0111961C921E92FF
:1037000013961C921E92129715961C921E92149755
:103710008617970749F0608171816115710521F065
:10372000448155810C9424190895FC011182108262
:1037300013821282158214826115710551F0FB010A
:1037400001900020E9F73197AF01461B570B0C940D
:1037500024190895CF93DF93282F30E0F901EC5519
:10376000FE4E8491F901E057FE4ED491F901E458E0
:10377000FE4EC491CC2391F081110E94C717EC2F0B
:10378000F0E0EE0FFF1FEE58FE4EA591B491EC91C4
:10379000ED2381E090E021F480E002C080E090E041
:1037A000DF91CF9108951F93CF93DF93282F30E0BF
:1037B000F901EC55FE4E8491F901E057FE4ED4918B
:1037C000F901E458FE4EC491CC23C9F0162F8111A3
:1037D0000E94C717EC2FF0E0EE0FFF1FE859FE4ED6
:1037E000A591B4918FB7F894111105C09C91ED2F5C
:1037F000E095E92302C0EC91ED2BEC938FBFDF91B4
:10380000CF911F910895CF93DF9390E0FC01E05793
:10381000FE4E2491FC01E458FE4E8491882361F110
:1038200090E0880F991FFC01E25AFE4EC591D49199
:10383000FC01E859FE4EA591B491611109C09FB7F2
:10384000F8948881209582238883EC912E230BC0E5
:10385000623061F49FB7F8943881822F809583237A
:103860008883EC912E2B2C939FBF06C08FB7F894C2
:10387000E8812E2B28838FBFDF91CF9108958E3062
:1038800008F08E508770806480937C0080917A006D
:10389000806480937A0080917A0086FDFCCF8091CD
:1038A00078002091790090E0922B08958F929F925A
:1038B000AF92BF92CF92DF92EF92FF926B017C01A9
:1038C0000E94F0174B015C01C114D104E104F10422
:1038D000F1F00E94F017DC01CB0188199909AA09BF
:1038E000BB09883E9340A105B10570F321E0C21ADF
:1038F000D108E108F10888EE880E83E0981EA11C2B
:10390000B11CC114D104E104F10419F7DDCFFF901B
:10391000EF90DF90CF90BF90AF909F908F900895E1
:103920002FB7F8946091460570914705809148053E
:10393000909149052FBF08951F920F920FB60F92D5
:1039400011242F933F938F939F93AF93BF938091B5
:10395000460590914705A0914805B09149053091E1
:10396000450523E0230F2D3720F40196A11DB11D3D
:1039700005C026E8230F0296A11DB11D2093450521
:103980008093460590934705A0934805B093490559
:1039900080914A0590914B05A0914C05B0914D0541
:1039A0000196A11DB11D80934A0590934B05A093EC
:1039B0004C05B0934D05BF91AF919F918F913F9171
:1039C0002F910F900FBE0F901F901895EFE6F0E02B
:1039D00080818D7F808382E08093810081E080936D
:1039E0008000E091FF04F091000590818091FE0439
:1039F0008095892380831092FE0408951F920F9270
:103A00000FB60F9211240F931F932F933F934F9351
:103A10005F936F937F938F939F93AF93BF93EF9336
:103A2000FF930E94901C00910105109102052091C6
:103A3000030530910405601771078207930718F09A
:103A400080E00E94E61CE091FF04F0910005908167
:103A50008091FE0489278083FF91EF91BF91AF9100
:103A60009F918F917F916F915F914F913F912F9196
:103A70001F910F910F900FBE0F901F9018951F92DE
:103A80000F920FB60F9211242F933F934F935F9392
:103A90006F937F938F939F93AF93BF93EF93FF9316
:103AA000E091AC04F091AD04309709F451C0968DCB
:103AB000A685B785858591FF04C09C91892329F44B
:103AC00047C09C91892309F043C0A389B4899C9184
:103AD0008589809589238C93868997890197F1F749
:103AE000608D718DA685B785558538E020E0CB01C6
:103AF0000197F1F7822F90E095958795282F4C91AB
:103B0000452309F02068315091F7868D81FD20957D
:103B10008091AB0490E001968F7399273091AA04AD
:103B2000381749F0A091AB04B0E0AB5FBA4F2C93CB
:103B30008093AB0403C0868D8160868F828D938DC8
:103B40000197F1F7A389B4899C918589892B8C937E
:103B5000FF91EF91BF91AF919F918F917F916F9165
:103B60005F914F913F912F910F900FBE0F901F903B
:103B70001895E091AC04F091AD04E817F90769F4E9
:103B8000A389B4899C918589809589238C9310920F
:103B9000AD041092AC0481E0089580E00895CF93C5
:103BA000DF93EC019C818E81981758F4E881F981AC
:103BB0000084F185E02D42E0CE0109958C818F5F74
:103BC0008C83DF91CF910895DC01ED91FC9100840D
:103BD000F185E02D40E00994FC012781269526958A
:103BE0002695621720F46583606B0C94E41D08959C
:103BF0000F931F93CF93FC0126816217A0F4C62F69
:103C00008C0164839085C90F6C2F6F70CF010E9467
:103C1000E41D6C2F62956F706061C801CF911F9198
:103C20000F910C94E41DCF911F910F910895CF92A5
:103C3000DF92EF92FF920F931F93CF93DF93EC01EC
:103C4000F62EC42ED22E8F818695869586950817DE
:103C500010F00FEF080F1D2D6F2DCE01011788F00A
:103C60000E94F81D612FCE010E94EC1DEF2CCE1496
:103C700030F060E0CE010E94CF1DE394F8CF1F5FCB
:103C8000EBCF0E94F81D6D2DCE01DF91CF911F91DA
:103C90000F91FF90EF90DF90CF900C94EC1D0F935D
:103CA0001F93DC0115962C9115971B96ED91FC91B5
:103CB0001C97309749F03396E49119960C91199717
:103CC000E09FE02D112401C0E0E08FEF820F0E2F66
:103CD00010E0095F1F4F93E0159507959A95E1F75E
:103CE000080F16964C911697415014966C911497A4
:103CF000CD010E94171E1F910F9108950F93CF932E
:103D0000DF93EC010F8106950695069501504E81D3
:103D1000415020E060E00E94171E81E09A859111D9
:103D200001C080E08A8760E4CE01DF91CF910F91DE
:103D30000C94E41D8AE00C94E61CCF93DF93CDB77E
:103D4000DEB7A7970FB6F894DEBF0FBECDBF78944D
:103D500084B5826084BD84B5816084BD85B5826090
:103D600085BD85B5816085BD80916E008160809341
:103D70006E001092810080918100826080938100AA
:103D800080918100816080938100809180008160BA
:103D9000809380008091B10084608093B100809115
:103DA000B00081608093B00080917A00846080933D
:103DB0007A0080917A00826080937A0080917A0004
:103DC000816080937A0080917A00806880937A0085
:103DD0001092C10060E081E10E94031C1092DC049B
:103DE0008CE38093DB041092B9008CE08093B800E0
:103DF0001092D1041092D204EDE5F1E085919491F6
:103E0000E82EEFE5F1E0F490E0E6F1E0E491E093F4
:103E1000D304E1E6F1E0E491E093D404E2E6F1E0DA
:103E2000E491E093D5048C01802F8E198F1548F40E
:103E3000F80164918DEC94E00E94E41D0F5F1F4F28
:103E4000F3CF1092D7048DEC94E00E947E1E62E0C6
:103E500082E00E94031C62E083E00E94031C62E097
:103E600084E00E94031C62E086E00E94031C62E082
:103E700085E00E94031C0E94E8108EE480937C0081
:103E800062E070E080E090E00E94561C80917A0031
:103E9000806480937A0080917A0086FDFCCF209127
:103EA00078008091790030E0382B032E000C440B11
:103EB000550B64EB7BE281E190E00E946928BA0136
:103EC000A9012AE0CE0144960E94F51A6DE471E042
:103ED000CE014A960E94951BBE016C5E7F4FCE01BB
:103EE0004A960E94DD1A64E571E00E94C41ABC0182
:103EF000CE0101960E947B1B23E046E060E0CE01EC
:103F000001960E94A710CE0101960E94F01ACE01E0
:103F10004A960E94F01ACE0144960E94F01A67E574
:103F200071E0CE0144960E94951B63E671E0CE01DC
:103F30004A960E94951BBE016C5E7F4FCE014A9649
:103F40000E94DD1ABC01CE0101960E947B1B23E07A
:103F500047E060E0CE0101960E94A710CE010196D5
:103F60000E94F01ACE014A960E94F01ACE014496A1
:103F70000E94F01A80E090E00E945328813009F0FE
:103F800063C09E012F5F3F4F790101E010E0C8013F
:103F90000E945328F70181937F010F5F1F4F043167
:103FA0001105A9F789819A8190930C0180930B01E7
:103FB0008B819C8190930A01809309018D8180936C
:103FC00004018B85809303018E818093E6048F81A9
:103FD0008093E70488858093E40489859A8590938B
:103FE0000201809301018C859D8590930601809349
:103FF00005018E859F85909308018093070188892C
:1040000080930001898980930D018A898093E1045E
:104010008B898093E5046BE671E0CE0144960E94A3
:10402000951B21E044E060E0CE0144960E94A71079
:10403000CE0144960E94F01A40E064E070E08FE206
:1040400090E00E942C1402C00E94EC16809109019D
:1040500090910A019093E3048093E20480910B0114
:1040600090910C019093EC048093EB041092C9049E
:104070001092C8041092C7041092C6041092C5048E
:104080001092C4048DE991E09093CB048093CA040C
:104090009091BA04963108F057C02DEB30E0309380
:1040A000C5042093C4042BE931E03093C704209366
:1040B000C6042CE231E03093C9042093C804209157
:1040C0006800983050F031E09E3008F430E081E034
:1040D00001C0880F3A95EAF701C084E0822B8093F3
:1040E0006800983038F09E3040F0963148F020E07B
:1040F00030E008C02DE630E005C02BE630E002C01D
:104100002CE630E03093C2042093C104983030F4A0
:1041100081E001C0880F9A95EAF70EC0292F30E0A0
:104120009E3018F42850310902C02E50310981E028
:1041300001C0880F2A95EAF78093C3048091CA04CE
:104140009091CB040197F1F78091C8049091C90434
:10415000892B21F18091AC049091AD04F4E08E3A6A
:104160009F07E1F0009711F00E94B91D8091CC04E7
:104170008E7F8093CC041092AB041092AA048EEA36
:1041800094E09093AD048093AC04E091C104F0916D
:10419000C20490818091C304892B808364EF71E015
:1041A00080E090E00E94561C62E070E089E00E948E
:1041B000791064EF71E080E090E00E94561C6091FD
:1041C000000170E086E00E94791040E064E070E059
:1041D0008FE190E00E942C141FEF80910D0190E080
:1041E0000E946C151150C9F70E942E1180910D018B
:1041F00090E00E946C159093EA048093E90480910A
:10420000E804882309F10E94901C0091F0041091A9
:10421000F1042091F2043091F304DC01CB01801B06
:10422000910BA20BB30B893E9340A105B10560F041
:104230000E942E110E94901C6093F0047093F10470
:104240008093F2049093F3040091E9041091EA043E
:1042500040900B0150900C010415150550F50E947B
:104260009A1E1093EC040093EB046CE271E083E07F
:104270000E9451150E94E8106CE771E0CE01019692
:104280000E94951B21E044E060E0CE0101960E946F
:10429000A710CE0101960E94F01A40E063E070E0A2
:1042A0008FE090E00E942C140E94E8100E942E11D2
:1042B000B0C0E0900901F0900A010E151F0508F04A
:1042C0007FC08091E70480900701909008012090C2
:1042D000050130900601612C712C882349F0B4014E
:1042E00080E090E00E9434275B016C01B10108C0BE
:1042F000B10180E090E00E9434275B016C01B401C1
:1043000080E090E00E94342768A379A38AA39BA34E
:10431000B70180E090E00E9434279B01AC01C3010B
:10432000B2012CA33DA34EA35FA30E9434272B010F
:104330003C016091E60470E080E090E00E94342748
:104340009F938F937F936F93B80180E090E00E94DA
:1043500034279F938F937F936F93E8A0F9A00AA1CE
:104360001BA12CA13DA14EA15FA1C301B2010E94DE
:10437000E5150FB6F894DEBF0FBECDBF0E94E2294F
:104380007093EF046093EE048091E504882389F034
:104390008091EE049091EF043CE2831A31E0930A9D
:1043A0008816990630F4845D9E4F9093EF048093B5
:1043B000EE0460E070E08091EE049091EF0413C091
:1043C00080910401E80EF11C0E151F05B8F48091D0
:1043D000E704882359F0809107019091080160E07B
:1043E00070E088539F4F0E94411313C080910501D4
:1043F0009091060160E070E04E97F5CF8091E40463
:10440000882329F060E070E081E090E0ECCF0E942A
:104410009A1E2091E9043091EA048091E20490917F
:10442000E3042817390738F481E10E943F1C909378
:10443000E3048093E2040E94E9138093ED0488234F
:1044400009F4E8C3813009F0D1C10E949A1E10E03E
:104450001F3F09F4AFC10E94E8106BE871E0CE0184
:1044600001960E94951B22E040E060E0CE0101969B
:104470000E94A710CE0101960E94F01A41E063E06D
:1044800070E08CE190E00E942C1440E065E070E068
:1044900080E290E00E942C1410E0812F90E08F3099
:1044A000910508F05FC1FC01EC5CFF4F0C94C32B3D
:1044B00069E971E0CE0101960E94951B21E044E07C
:1044C00060E0CE0101960E94A710CE0101960E94E5
:1044D000F01A40E068E070E08BE190E041C168EAEA
:1044E00071E0CE0101960E94951B21E044E060E05E
:1044F000CE0101960E94A710CE0101960E94F01AEB
:1045000040E068E070E087E190E02AC169EB71E08B
:10451000CE0101960E94951B21E044E060E0CE01AF
:1045200001960E94A710CE0101960E94F01A40E069
:1045300068E070E086E190E013C16AEC71E0CE01C2
:1045400001960E94951B21E044E060E0CE010196B7
:104550000E94A710CE0101960E94F01A40E068E088
:1045600070E089E190E0FCC06DED71E0CE01019654
:104570000E94951B21E044E060E0CE0101960E947C
:10458000A710CE0101960E94F01A40E068E070E0AA
:104590008AE190E0E5C06BEE71E0CE0101960E94E9
:1045A000951B21E044E060E0CE0101960E94A71037
:1045B000CE0101960E94F01A40E068E070E088E1C8
:1045C00090E0CEC06BEF71E0CE0101960E94951B8A
:1045D00021E044E060E0CE0101960E94A710CE01E8
:1045E00001960E94F01A40E068E070E08BE290E0F3
:1045F000B7C06AE072E0CE0101960E94951B21E0EF
:1046000044E060E0CE0101960E94A710CE01019621
:104610000E94F01A40E068E070E085E190E0A0C000
:1046200069E172E0CE0101960E94951B21E044E011
:1046300060E0CE0101960E94A710CE0101960E9473
:10464000F01A40E068E070E084E190E089C068E240
:1046500072E0CE0101960E94951B21E044E060E0EB
:10466000CE0101960E94A710CE0101960E94F01A79
:1046700040E068E070E083E190E072C06BE372E0DC
:10468000CE0101960E94951B21E044E060E0CE013E
:1046900001960E94A710CE0101960E94F01A40E0F8
:1046A00068E070E08DE390E05BC06CE472E0CE0106
:1046B00001960E94951B21E044E060E0CE01019646
:1046C0000E94A710CE0101960E94F01A40E068E017
:1046D00070E087E490E044C066E572E0CE010196A8
:1046E0000E94951B21E044E060E0CE0101960E940B
:1046F000A710CE0101960E94F01A40E068E070E039
:104700008BE390E02DC065E672E0CE0101960E9439
:10471000951B21E044E060E0CE0101960E94A710C5
:10472000CE0101960E94F01A40E068E070E084E457
:1047300090E016C062E772E0CE0101960E94951BE0
:1047400021E044E060E0CE0101960E94A710CE0176
:1047500001960E94F01A40E068E070E082E190E08B
:104760000E942C140E94E913823019F41E3008F4C0
:104770001F5F0E94E913833011F4111111500E9440
:10478000E913082F0E94E913843019F4812F0E9445
:1047900088140E94E913853049F0013009F07DCE7C
:1047A0001F3F29F0812F0E94080901C01FEF0E94BE
:1047B0009A1E4ECE65E872E0CE0101960E94951BCE
:1047C00021E044E060E0CE0101960E94A710CE01F6
:1047D00001960E94F01A40E064E070E081E290E00F
:1047E0000E942C141092E8040E942E118091ED0476
:1047F000843009F0E2C10E94E81062E972E0CE0163
:1048000001960E94951B21E044E060E0CE010196F4
:104810000E94A710CE0101960E94F01A40E064E0C9
:1048200070E08EE290E00E942C1440E064E070E0C2
:1048300081E190E00E942C14812C912C8091030145
:104840002AE5829FC00111248816990608F054C0F9
:1048500080E090E00E946C158C01609105017091E0
:10486000060180E090E00E9434275B016C016091BA
:1048700007017091080180E090E00E9434272B012D
:104880003C016091E60470E080E090E00E943427F3
:104890009F938F937F936F93B80180E090E00E9485
:1048A00034279F938F937F936F938301720120E04E
:1048B00030E041E654E460E070E088EC92E40E946D
:1048C000E5150FB6F894DEBF0FBECDBF0E94E229FA
:1048D000DC01CB019093EF048093EE0460E070E084
:1048E0000E944113FFEF8F1A9F0A6AE070E080E098
:1048F00090E00E94561CA2CF6CE271E080E090E054
:104900000E94561C60ED77E081E00E9451156CE238
:1049100071E080E090E00E94561C67EA72E0CE01F0
:1049200001960E94951B21E044E060E0CE010196D3
:104930000E94A710CE0101960E94F01A40E065E0A7
:1049400070E08DE190E00E942C14612C712C882481
:104950008A9493E0992E0E94E913182F811163C065
:1049600080E090E00E946C152C016091050170912F
:10497000060180E090E00E9434275B016C016091A9
:1049800007017091080180E090E00E94342768A33D
:1049900079A38AA39BA36091E60470E080E090E095
:1049A0000E9434279F938F937F936F93B20180E08F
:1049B00090E00E9434279F938F937F936F93E8A09A
:1049C000F9A00AA11BA120E030E041E654E460E038
:1049D00070E088EC92E40E94E5150FB6F894DEBF13
:1049E0000FBECDBF0E94E229DC01CB019093EF0402
:1049F0008093EE0460E070E00E9441134814590473
:104A000018F44201612C712CFFEF6F1A7F0A21ED1F
:104A1000621627E07206D8F46AE070E080E090E069
:104A20000E94561C98CF89E9E82E8AE3F82E0E944E
:104A3000E91318130CC031E0E31AF108C1F768E577
:104A400072E082E00E945115163F09F489CF00916F
:104A50000101109102018FEF93E0801B910B2091D7
:104A60000401821B910988169906D8F460ED77E05D
:104A700083E00E94511584E1881A910890920C01FC
:104A800080920B01080D191D10930A010093090172
:104A90000E94EC1668EB7BE080E090E00E94561CE0
:104AA0001CC069EB72E0CE0101960E94951B21E0CB
:104AB00044E060E0CE0101960E94A710CE0101966D
:104AC0000E94F01A40E06AE070E087E390E00E9404
:104AD0002C1461E0C4010E94041560910B017091D7
:104AE0000C014AE0CE0144960E94221B60ED72E068
:104AF000CE014A960E94951BBE016C5E7F4FCE018F
:104B00004A960E94DD1ABC01CE0101960E947B1BD1
:104B100021E044E060E0CE0101960E94A710CE01A2
:104B200001960E94F01ACE014A960E94F01ACE0118
:104B300044960E94F01A40E063E070E088E390E061
:104B40000E942C1460E080910B0190910C010E9456
:104B5000041560EE72E0CE0101960E94951B21E0E3
:104B600044E060E0CE0101960E94A710CE010196BC
:104B70000E94F01A40E064E070E08CE090E00E9457
:104B80002C1462EF72E0CE0101960E94951B21E089
:104B900044E060E0CE0101960E94A710CE0101968C
:104BA0000E94F01A40E064E070E080E390E00E9430
:104BB0002C141092E8040E942E118091ED0485308F
:104BC000C9F40E94E8108091090190910A01909324
:104BD000E3048093E2046CE271E080E090E00E94E4
:104BE000561C81E09091E804911180E08093E804E4
:104BF0000E942E118091ED04833021F48BEF9FEF02
:104C00000E9474178091ED04823021F485E090E0D9
:104C10000E9474178091E104882371F0815065E04F
:104C200070E002C0660F771F8A95E2F7072E000C2E
:104C3000880B990B0E94561C8091DD049091DE0434
:104C4000A091DF04B091E0040196A11DB11D8093F5
:104C5000DD049093DE04A093DF04B093E004E0E071
:104C6000F0E0309709F4C2CA0995C0CA8FE391E019
:104C70009093AF048093AE048EEA94E00C94B91D37
:104C80001092B1041092B00488EE93E0A0E0B0E07E
:104C90008093B2049093B304A093B404B093B5048A
:104CA0008FE391E09093AF048093AE041092C5041B
:104CB0001092C4041092C7041092C6041092C90442
:104CC0001092C8041092CB041092CA046091CC04D4
:104CD0006E7F6D7F6093CC046695617081E068277C
:104CE0008CE00E94D31B61E08CE00E94031CECE985
:104CF000F1E1E491E093BE04E8E8F1E1E491F0E051
:104D0000EE0FFF1FE859FE4E859194919093C004D9
:104D10008093BF0460E08BE00E94031C8091CC0470
:104D200081FD04C061E08BE00E94D31B8BE0809387
:104D3000BA04EBE9F1E1E491E093BB04E7E8F1E1C7
:104D4000E491F0E0EE0FFF1FEE58FE4E8591949136
:104D50009093BD048093BC041092D0041092CF04B1
:104D600081E08093D6041092D9041092D80481E394
:104D700091E09093CE048093CD04089525323105BF
:104D800020F4223010F00C94C926FA011082CA01D6
:104D90000895BB272A3051F4992342F4BDE290953F
:104DA0008095709561957F4F8F4F9F4F0C94D926BA
:104DB000BB27FA01A62F6217710581059105330BF8
:104DC00030FB66F0AA27660F771F881F991FAA1F5E
:104DD000A21710F0A21B63953850A9F7A05DAA3363
:104DE00008F0A95DA19336F7B111B1931082CA0101
:104DF0000C941F274532510520F4423010F00C94DA
:104E00000527FB011082CB010895BB27FB01552725
:104E1000AA27880F991FAA1FA41710F0A41B839517
:104E20005051B9F7A05DAA3308F0A95DA19300978E
:104E300079F7B111B1931192CB010C941F27DC01CA
:104E4000FC01672F71917723E1F7329704C07C91C1
:104E50006D9370836291AE17BF07C8F308950E94E7
:104E6000712708F481E00895E89409C097FB3EF4A7
:104E700090958095709561957F4F8F4F9F4F9923A7
:104E8000A9F0F92F96E9BB279395F6958795779525
:104E90006795B795F111F8CFFAF4BB0F11F460FFE5
:104EA0001BC06F5F7F4F8F4F9F4F16C0882311F03D
:104EB00096E911C0772321F09EE8872F762F05C051
:104EC000662371F096E8862F70E060E02AF09A95EC
:104ED000660F771F881FDAF7880F9695879597F9E1
:104EE0000895990F0008550FAA0BE0E8FEEF16167B
:104EF0001706E807F907C0F012161306E407F507CE
:104F000098F0621B730B840B950B39F40A2661F041
:104F1000232B242B252B21F408950A2609F4A140E4
:104F2000A6958FEF811D811D08950E94A8270C94DE
:104F300019280E940B2838F00E94122820F095238F
:104F400011F00C9402280C94082811240C944D287C
:104F50000E942A2870F3959FC1F3950F50E0551FCA
:104F6000629FF001729FBB27F00DB11D639FAA27BE
:104F7000F00DB11DAA1F649F6627B00DA11D661F0D
:104F8000829F2227B00DA11D621F739FB00DA11D2E
:104F9000621F839FA00D611D221F749F3327A00DE8
:104FA000611D231F849F600D211D822F762F6A2F84
:104FB00011249F5750409AF0F1F088234AF0EE0FE9
:104FC000FF1FBB1F661F771F881F91505040A9F716
:104FD0009E3F510580F00C9402280C944D285F3FB1
:104FE000E4F3983ED4F3869577956795B795F79552
:104FF000E7959F5FC1F7FE2B880F911D96958795CA
:1050000097F9089597F99F6780E870E060E0089548
:105010009FEF80EC089500240A94161617061806D0
:105020000906089500240A941216130614060506AC
:105030000895092E0394000C11F4882352F0BB0F3D
:1050400040F4BF2B11F460FF04C06F5F7F4F8F4FA0
:105050009F4F089557FD9058440F551F59F05F3FDB
:1050600071F04795880F97FB991F61F09F3F79F08A
:1050700087950895121613061406551FF2CF46950C
:10508000F1DF08C0161617061806991FF1CF86958E
:105090007105610508940895E894BB276627772772
:1050A000CB0197F90895F999FECF92BD81BDF89A89
:1050B000992780B50895262FF999FECF1FBA92BD82
:1050C00081BD20BD0FB6F894FA9AF99A0FBE0196E9
:1050D0000895052E97FB1EF400940E94802857FD2A
:1050E00007D00E94D22807FC03D04EF40C948028ED
:1050F00050954095309521953F4F4F4F5F4F089504
:1051000090958095709561957F4F8F4F9F4F089533
:105110000E94F428A59F900DB49F900DA49F800D30
:10512000911D11240895B7FF0C9488280E948828A7
:10513000821B930B08952F923F924F925F926F9232
:105140007F928F929F92AF92BF92CF92DF92EF9217
:10515000FF920F931F93CF93DF93CDB7DEB7CA1B98
:10516000DB0B0FB6F894DEBF0FBECDBF09942A88C3
:10517000398848885F846E847D848C849B84AA846B
:10518000B984C884DF80EE80FD800C811B81AA81F8
:10519000B981CE0FD11D0FB6F894DEBF0FBECDBFC3
:1051A000ED010895A1E21A2EAA1BBB1BFD010DC043
:1051B000AA1FBB1FEE1FFF1FA217B307E407F507C7
:1051C00020F0A21BB30BE40BF50B661F771F881FA3
:1051D000991F1A9469F760957095809590959B0139
:1051E000AC01BD01CF010895A29FB001B39FC001E2
:1051F000A39F700D811D1124911DB29F700D811D03
:105200001124911D08955058BB27AA270E941B29DD
:105210000C9419280E940B2838F00E94122820F0C4
:1052200039F49F3F19F426F40C9408280EF4E09505
:10523000E7FB0C940228E92F0E942A2858F3BA179A
:10524000620773078407950720F079F4A6F50C949C
:105250004C280EF4E0950B2EBA2FA02D0B01B901AE
:1052600090010C01CA01A0011124FF27591B99F0DC
:10527000593F50F4503E68F11A16F040A22F232FE8
:10528000342F4427585FF3CF469537952795A79538
:10529000F0405395C9F77EF41F16BA0B620B730BDF
:1052A000840BBAF09150A1F0FF0FBB1F661F771F50
:1052B000881FC2F70EC0BA0F621F731F841F48F405
:1052C000879577956795B795F7959E3F08F0B0CF8E
:1052D0009395880F08F09927EE0F97958795089575
:1052E0000E9484290C9419280E94122858F00E94C8
:1052F0000B2840F029F45F3F29F00C94022851114B
:105300000C944D280C9408280E942A2868F39923AD
:10531000B1F3552391F3951B550BBB27AA276217B1
:105320007307840738F09F5F5F4F220F331F441FBE
:10533000AA1FA9F335D00E2E3AF0E0E832D09150F2
:105340005040E695001CCAF72BD0FE2F29D0660FDF
:10535000771F881FBB1F261737074807AB07B0E822
:1053600009F0BB0B802DBF01FF2793585F4F3AF028
:105370009E3F510578F00C9402280C944D285F3F15
:10538000E4F3983ED4F3869577956795B795F795AE
:105390009F5FC9F7880F911D9695879597F9089596
:1053A000E1E0660F771F881FBB1F62177307840732
:1053B000BA0720F0621B730B840BBA0BEE1F88F741
:1053C000E09508950E94322888F09F5798F0B92FF1
:1053D0009927B751B0F0E1F0660F771F881F991F2A
:1053E0001AF0BA95C9F714C0B13091F00E944C2858
:1053F000B1E008950C944C28672F782F8827B85F68
:1054000039F0B93FCCF3869577956795B395D9F781
:105410003EF490958095709561957F4F8F4F9F4F8B
:1054200008950E94712708F48FEF0895FA01EE0F96
:10543000FF1F309621053105A1F16115710561F459
:105440008038BFE39B0749F168949038810561F08B
:105450008038BFEF9B0741F099234AF5FF3FE105F4
:105460003105210519F1E8940894E795D901AA239B
:1054700029F4AB2FBE2FF85FD0F310C0FF5F70F49C
:10548000A695E0F7F73950F019F0FF3A38F49F7716
:105490009F930DD00F9007FC9058089546F00C9400
:1054A000082860E070E080E89FE308954FE79F7769
:1054B0005F934F933F932F930E94112B2F913F9116
:1054C0004F915F910E9495270C946E2A29F416F053
:1054D0000C9402280C944C280C9408280E94322822
:1054E000A8F39638A0F707F80F92E8942BE33AEA6E
:1054F00048EB5FE70E94AB270F920F920F924DB7D8
:105500005EB70F920E94592BE2ECF0E00E94A02AB5
:105510004F915F91EF91FF91E595EE1FFF1F49F0CD
:10552000FE57E0684427EE0F441FFA95E1F74195D6
:10553000550B0E94D32A0F9007FE0C94C72A08959A
:10554000DF93CF931F930F93FF92EF92DF927B0134
:105550008C01689406C0DA2EEF010E94A827FE0194
:10556000E894A5912591359145915591A6F3EF01C8
:105570000E941B29FE019701A801DA9469F7DF90C8
:10558000EF90FF900F911F91CF91DF9108959B01B4
:10559000AC0160E070E080E89FE30C9470290C940B
:1055A00002280C948D2B0E943228D8F39923C9F33A
:1055B000940F511DA3F39150504094F059F088235B
:1055C00032F0660F771F881F91505040C1F79E3F01
:1055D00051052CF7880F911D9695879597F9089599
:1055E0005F3FACF0983E9CF0BB278695779567951A
:1055F000B79508F4B1609395C1F7BB0F58F711F454
:1056000060FFE8CF6F5F7F4F8F4F9F4FE3CF0C94CA
:105610004D2816F00C948D2B0C94082868940C944B
:1056200002280E943228A8F39923C1F3AEF3DF9336
:10563000CF931F930F93FF92C92FDD2788232AF062
:105640002197660F771F881FDAF720E030E040E8E7
:105650005FEB9FE3883920F0803E38F021968F770A
:105660000E940429EAEEF0E004C00E940429E7E168
:10567000F1E00E94A02A8B01BE01EC01FB2E6F57C6
:1056800071097595771F880B990B0E94362728E1C1
:1056900032E741E35FE30E94A827AF2D9801AE01F6
:1056A000FF900F911F91CF91DF910E941B290C94C5
:1056B0001928FA01DC01AA0FBB1F9B01AC01BF57DF
:1056C00028F4222733274427507820C0B75190F47C
:1056D000AB2F0024469537952795011CA395D2F34F
:1056E000002071F0220F331F441FB395DAF30ED060
:1056F0000C94032961307105A0E88A07B94630F49B
:105700009B01AC016627772788279078309621F097
:10571000208331834283538308959F3F31F091501A
:1057200020F4879577956795B795880F911D969585
:10573000879597F90895AA1BBB1B51E107C0AA1FC3
:10574000BB1FA617B70710F0A61BB70B881F991F22
:105750005A95A9F780959095BC01CD01089597FBC6
:10576000072E16F4009407D077FD09D00E949B2BDA
:1057700007FC05D03EF4909581959F4F0895709554
:1057800061957F4F0895EE0FFF1F0590F491E02D76
:105790000994CF93DF938230910510F482E090E07A
:1057A000E0915005F091510520E030E0C0E0D0E0FC
:1057B000309711F14081518148175907C0F04817BF
:1057C000590761F482819381209719F09B838A8322
:1057D0002BC0909351058093500526C021153105AB
:1057E00019F04217530718F49A01BE01DF01EF01C7
:1057F0000280F381E02DDCCF2115310509F1281B52
:10580000390B2430310590F412968D919C911397A9
:105810006115710521F0FB019383828304C090938D
:10582000510580935005FD01329644C0FD01E20F01
:10583000F31F81939193225031092D933C933AC0E9
:1058400020914E0530914F05232B41F420911001FA
:105850003091110130934F0520934E0520910E0198
:1058600030910F012115310541F42DB73EB740911C
:10587000120150911301241B350BE0914E05F0915C
:105880004F05E217F307A0F42E1B3F0B281739072B
:1058900078F0AC014E5F5F4F2417350748F04E0F8C
:1058A0005F1F50934F0540934E058193919302C023
:1058B000E0E0F0E0CF01DF91CF9108950F931F93C7
:1058C000CF93DF93009709F48CC0FC0132971382C9
:1058D000128200915005109151050115110581F4B6
:1058E00020813181820F931F20914E0530914F0509
:1058F0002817390779F5F0934F05E0934E0571C0ED
:10590000D80140E050E0AE17BF0750F412962D9139
:105910003C911397AD012115310509F1D901F3CF60
:105920009D01DA013383228360817181860F971F85
:105930008217930769F4EC0128813981260F371FFC
:105940002E5F3F4F318320838A819B8193838283A3
:10595000452B29F4F0935105E093500542C013966E
:10596000FC93EE931297ED01499159919E01240FFA
:10597000351FE217F30771F480819181840F951F21
:10598000029611969C938E938281938113969C9399
:105990008E931297E0E0F0E0D80112968D919C91E1
:1059A0001397009719F0F8018C01F6CF8D919C9117
:1059B00098012E5F3F4F820F931F20914E0530912B
:1059C0004F052817390769F4309729F410925105CB
:1059D0001092500502C01382128210934F0500935B
:1059E0004E05DF91CF911F910F910895A0E0B0E097
:1059F000ECEFFCE20C949F28EC01009721F4CB0122
:105A00000E94C92BB8C0FC01E60FF71F9C01225071
:105A10003109E217F30708F4ACC0D9010D911C91CC
:105A2000119706171707B0F00530110508F49FC04D
:105A3000C80104978617970708F499C00250110906
:105A4000061B170B019311936D937C93CF010E945A
:105A50005E2C8DC05B01A01AB10A4C01800E911E14
:105A6000A0915005B091510540E050E0E12CF12C9F
:105A7000109709F44AC0A815B905D1F56D907C902E
:105A80001197630182E0C80ED11CCA14DB0480F1B7
:105A9000A3014A195B096A0182E0C80ED11C129663
:105AA000BC9012971396AC91B5E0CB16D10440F0A0
:105AB000B282A38351834083D9016D937C930AC042
:105AC0000E5F1F4FC301800F911FF90191838083E7
:105AD000EB2DFA2FE114F10431F0D7011396FC936A
